:020000040800F2
:10000000000002203D380108DB250008E325000838
:10001000EB250008F3250008FB250008C12900088E
:10002000000000000000000000000000032600089F
:1000300011260008000000001F2600082D260008D9
:10004000C1290008C129000839260008C129000873
:10005000C1290008C1290008C1290008C1290008D8
:10006000C129000851260008C1290008C12900083B
:10007000C1290008C1290008C1290008C1290008B8
:10008000C1290008C1290008C1290008C1290008A8
:10009000C1290008C1290008C1290008C129000898
:1000A000C1290008C1290008C1290008C129000888
:1000B000C12900088D260008A1260008C1290008D2
:1000C000B5260008C9260008C1290008C129000872
:1000D000C1290008DD260008F1260008C129000812
:1000E000C1290008C1290008C1290008C129000848
:1000F000C1290008C129000805270008C1290008F6
:10010000C129000819270008C12900082D27000867
:10011000C1290008C1290008C1290008C129000817
:10012000C1290008C1290008C1290008C129000807
:10013000C129000889270008C129000851270008A3
:10014000C1290008C129000865270008C129000845
:10015000C1290008C1290008C1290008C1290008D7
:1001600010B5054C237833B9044B13B10448AFF3F1
:1001700000800123237010BD9006002000000000C5
:100180000C66030808B5034B1BB103490348AFF3E2
:10019000008008BD00000000940600200C660308E3
:1001A00010B488420DD98B1898420AD2811832B106
:1001B0009A1A13F8014D9A4201F8014DF9D110BC79
:1001C0007047002AFBD00A44431E11F8014B8A42B3
:1001D00003F8014FF9D110BC704770B4840746D0C2
:1001E0004C1E002941D0D5B2034602E0611EE4B3A3
:1001F0000C4603F8015B9907F8D1032C2ED9D5B230
:1002000045EA05250F2C45EA054519D9264603F18F
:100210001001103E0F2E41F8105C41F80C5C41F8C3
:10022000085C41F8045C01F11001F2D8A4F110015E
:1002300021F00F0104F00F041031032C0B440DD9F1
:100240001E4621460439032946F8045BFAD8211FCB
:1002500021F0030104310B4404F003042CB1D2B2A9
:100260001C4403F8012BA342FBD170BC70470C4621
:100270000346C2E753B94AB9002908BF00281CBF8A
:100280004FF0FF314FF0FF3000F0B0B9ADF1080C86
:100290006DE904CE00F006F8DDF804E0DDE90223A4
:1002A00004B070472DE9F04F099D884604468E46FC
:1002B000002B4AD18A4217465FD9B2FA82F64EB174
:1002C000C6F1200301FA06FEB740B44020FA03F35A
:1002D00043EA0E0E4FEA17481FFA87FC230CBEFBB9
:1002E000F8F108FB11EE01FB0CF243EA0E439A42CF
:1002F00007D9FB1801F1FF3002D29A4200F2548173
:1003000001469B1AA2B2B3FBF8F008FB103300FBC6
:100310000CFC42EA034294450BD9BA1800F1FF33B2
:100320002CBF01240024944502D9002C00F03F8109
:10033000184640EA0140A2EB0C0200211DB1F24038
:100340000023C5E90023BDE8F08F8B4205D90DB12C
:10035000C5E9000100210846F5E7B3FA83F1002959
:100360004ED14345C0F01281824240F20F810846CF
:10037000002DE8D0C5E9004EE5E7002A00F0AC808A
:10038000B2FA82F6002E40F0BB808B1A4FEA124E72
:10039000BCB20121020C80B2B3FBFEFC0EFB1C338D
:1003A00042EA034304FB0CF29A420ED9FB180CF10B
:1003B000FF382CBF4FF001094FF000099A4203D9D2
:1003C000B9F1000F00F0EC80C4469B1AB3FBFEF8B5
:1003D0000EFB183304FB08F440EA034294420BD9A5
:1003E000BA1808F1FF332CBF01200020944202D933
:1003F000002800F0D1809846121B48EA0C409DE787
:10040000C1F120068B4008FA01F400FA01F922FA42
:1004100006F728FA06F88A401F4320FA06F3380C3C
:1004200023431FFA87FC1C0CB8FBF0FE00FB1E8860
:1004300044EA08440EFB0CF8A0450ED93C190EF115
:10044000FF3A2CBF4FF0010B4FF0000BA04503D932
:10045000BBF1000F00F0B880D646A4EB08041FFAE9
:1004600083F8B4FBF0F300FB134403FB0CFC48EAF5
:100470000444A4450ED93C1903F1FF302CBF4FF0C2
:1004800001084FF00008A44503D9B8F1000F00F0AF
:100490009F80034643EA0E40A4EB0C04A0FB02EC51
:1004A00064457346E04602D307D1F14505D2BEEB61
:1004B00002036CEB070C0138E0465DB1B9EB0302B7
:1004C00064EB080404FA06F622FA01F3CC401E435A
:1004D000C5E90064002136E7B1FBF2FC010C1446CB
:1004E00080B2964641EA08412026904640EA014300
:1004F0001046B1FBF2F1A3EB080341EA0C414BE7D4
:10050000B740C6F1200301FA06F221FA03F84FEAD8
:10051000174E20FA03F3BCB2B0401343020C190C7F
:1005200080B2B8FBFEF90EFB198841EA084109FBCD
:1005300004F8884551D9791809F1FF3C2CBF4FF0D8
:10054000010A4FF0000A884502D9BAF1000F31D0F4
:10055000A1EB0801B1FBFEF909FB04F80EFB191130
:100560009BB243EA0143434535D2FB1809F1FF3101
:100570002CBF4FF0010A4FF0000A4345BBD2BAF13D
:10058000000FB8D1A9F102013B44B4E7841A68EB2B
:10059000030201209646EBE63A44A8F102082BE755
:1005A000ACF1020C3B4410E702393B44A9E63A4463
:1005B0000238BEE6A7EB0808A9F1020C4144B1FBE2
:1005C000FEF909FB04F8C9E7AEF1020E3C4444E72A
:1005D000023B3C445EE749468DE7A1EB0801CC466F
:1005E000B1FBFEF909FB04F8B8E700BF704700BF94
:1005F00080B586B000AF78600B467B807B681B7847
:10060000FB73FB7BA52B00F00C81A52B00F30B816A
:10061000562B57DC302BC0F20681303B262B00F2E4
:10062000028101A252F823F0DF070008CB06000880
:1006300027080008270800082708000827080008DE
:1006400027080008270800082708000827080008CE
:1006500027080008270800082708000827080008BE
:1006600027080008270800082708000825070008B1
:100670006F0700083D070008270800082708000842
:10068000270800082708000827080008270800088E
:10069000270800082708000827080008270800087E
:1006A000270800082708000827080008270800086E
:1006B000270800082708000827080008270800085E
:1006C000830700086B2B10D0ADE07B88012B08D985
:1006D0007B6801331B78612B03D1012000F0B8F84F
:1006E000A6E0092000F0B4F8A2E07B6801331B7893
:1006F000672B03D15049002000F0C4F87B68013318
:100700001B78722B03D14C49042000F0BBF87B68A6
:1007100001331B78622B40F088804749082000F0A5
:10072000B1F882E0454804F01AFB454B00221A70EC
:10073000444B00221A7000F0C1F879E03F4804F001
:10074000C5FA7B88012B0BD97B6801331B78622BA0
:1007500006D13B4B01221A703A4B00221A7067E017
:10076000374B00221A70374B01221A7060E0334871
:1007700004F0ACFA324B01221A70324B00221A708C
:1007800056E07B88012B52D97B88013BFB82FB8A98
:10079000032B01D90323FB827B68591CFA8A07F1DA
:1007A0000803184635F0D5FAFB8A18333B4400227B
:1007B00003F8102C07F10803184635F09DF938614D
:1007C0003B69002B01DC01233B613B69632B01D9B1
:1007D00063233B613B69DAB21B4B1A7028E0174870
:1007E00004F0BDFA164B00221A70164B00221A7044
:1007F0000021164807F056FD0021144807F0DCFDE3
:100800000421124807F04EFD0421104807F0D4FDE2
:1008100008210E4807F046FD08210C4807F0CCFDE2
:1008200006E000BF04E000BF02E000BF00E000BF40
:1008300000BF1837BD4680BD040000200C350020E5
:10084000F2060020F306002000000020643700209C
:1008500080B483B000AF0346FB71FB7903F01F0344
:10086000FB71FB79054A064951F82330936100BFBB
:100870000C37BD465DF8047B704700BF00000242A4
:100880002086030880B582B000AF7860396000210F
:10089000094807F007FD0421074807F003FD082178
:1008A000054807F0FFFC7968034807F01BFC00BF10
:1008B0000837BD4680BD00BF6437002080B584B0D6
:1008C00002AF0920FFF7C4FF01224FF4005117487F
:1008D00004F0ECF800224FF40051144804F0E6F85C
:1008E0000221134804F0FAF8124B1B880A220092E6
:1008F000114A1249124806F0DBFA0346FB710E4B0F
:100900001A88104B1A800F4B1B881A460E490F4845
:1009100035F07AF938603B689BB21A460B490C48AF
:1009200008F086FE00BF0837BD4680BD00040242C5
:10093000000002421A000020F006002018000020EB
:1009400098350020AC06002024660308B00600207D
:10095000B037002080B500AF0A4B93F88930DBB286
:10096000012B0DD101224FF40051074804F09EF8ED
:10097000064B1B6800225A62044807F0D7FA00E0D1
:1009800000BF80BD983500200004024218370020C7
:1009900080B582B000AF78607B681B680F4A9342D5
:1009A00018D10F4807F016FB00224FF400510D48F4
:1009B00004F07CF80C4B1B880C4A0D490D4806F0DE
:1009C000ABFC0346002B05D001224FF40051054833
:1009D00004F06CF800BF0837BD4680BD002C014014
:1009E00018370020000402421A000020F006002000
:1009F000180000209835002080B582B000AF7860E4
:100A0000204B1B78184600F09BF91E4B1B781846AC
:100A1000FFF71EFFFFF79EFF1A4B1B780133DAB278
:100A2000184B1A70174B1B781F2B26D9154B002219
:100A30001A70154B1B780133DAB2134B1A70124B34
:100A40001B78012B19D9104B00221A700F4BD3F8C9
:100A50008830202B07D10E4B1B78DBB2012B02D143
:100A600000F002FB09E00B4B1B78DBB2012B04D139
:100A700000214FF4007016F017FA00BF0837BD468A
:100A800080BD00BF7C2400207D240020B0370020E2
:100A9000F3060020F206002080B584B000AF786035
:100AA0007B681B680A4A93420DD10A4B1B88FB8165
:100AB00002F03AF8B860084B1B781846FB89BA6810
:100AC000194600F053F900BF1037BD4680BD00BF86
:100AD00000200046F00600207424002080B582B07B
:100AE00000AF78607B68C6220021184635F0FAF81E
:100AF0007B680022C3F8C8207B68002283F8CC20E2
:100B00007B68002283F8CD207B680022A3F8CE20EA
:100B10007B68002283F8D0207B68002283F8D120F4
:100B20007B68002283F8D2207B68002283F8D320E0
:100B30007B680022A3F8D4207B68002283F8E020A1
:100B40007B680022C3F8E4207B68002283F8E82059
:100B500000BF0837BD4680BD80B485B000AF786067
:100B60000B467B807B6893F8CC30FB737B6893F8F3
:100B7000CD307B73294B1B78BB73BB7B002B01D122
:100B80000123BB73BB7B632B01D96323BB737A7BCC
:100B9000BB7B9A4205D27B7B0133DAB27B6883F858
:100BA000CD207B68D3F8C830F97B7A6832F8112001
:100BB0009A1A7B68C3F8C8207B68D3F8C8207B8862
:100BC0001A447B68C3F8C820FA7B7B68798823F8CD
:100BD0001210FB7B0133FB73FA7BBB7B9A4201D380
:100BE0000023FB737B68FA7B83F8CC207B6893F847
:100BF000CD303B733B7B002B01D17B8807E07B68CA
:100C0000D3F8C8203B7BB2FBF3F37B817B8918468A
:100C10001437BD465DF8047B704700BF000000201C
:100C200080B485B000AF0346FB800B46BB80134603
:100C3000FB70BA88FB88D31AFB60FB78FA6842FA2B
:100C400003F39AB2FB881344FB80FB8818461437E1
:100C5000BD465DF8047B704780B588B000AF0346A1
:100C60003960FB711A4B1B68002B2DD0FB793B724E
:100C70003B68D3F8E430FB603B6893F8E030BB7628
:100C8000BB7E052B01D90523BB760023FB7710E043
:100C9000FB7FFA7F396868335B000B44D988131DEA
:100CA0005B0020333B440A4623F8182CFB7F0133BA
:100CB000FB77BB7EFA7F9A42EAD3054B1B6807F1AC
:100CC00008021046984700E000BF2037BD4680BDAF
:100CD0007824002080B582B000AF0023FB710BE0C8
:100CE000FB79EC2202FB03F30A4A13441846FFF790
:100CF000F5FEFB790133FB71FB791F2BF0D9064B15
:100D000000221A70054B00221A6000BF0837BD464A
:100D100080BD00BFF4060020742400207824002049
:100D200080B483B000AF7860044A7B68136000BF72
:100D30000C37BD465DF8047B704700BF7824002067
:100D400080B483B000AF0346FB71FB791F2B01D940
:100D50000023FB71044AFB79137000BF0C37BD46BA
:100D60005DF8047B704700BF7424002080B586B016
:100D700000AF03463A60FB710B46BB80FB79FB7505
:100D8000FB7D1F2B00F20881FB7DEC2202FB03F3AD
:100D9000854A13443B61BB8819463869FFF7DCFE7E
:100DA0000346FB813B69BA88A3F8D4203B6993F8DA
:100DB000D030002B0CD13B69B3F8CE30F989082232
:100DC0001846FFF72DFF03461A463B69A3F8CE20CD
:100DD0003B69B3F8CE303233BB813B69B3F8CE30D8
:100DE00019337B813B6993F8D030022B00F09C8053
:100DF000022B00F3CC80002B02D0012B45D0C6E0A3
:100E0000FA89BB899A423BD93B6993F8D130FF2BD1
:100E100007D03B6993F8D1300133DAB23B6983F8EC
:100E2000D1203B6993F8D130012B40F2B7803B6968
:100E3000012283F8D0203B69002283F8D1203B694E
:100E4000002283F8D2203B69002283F8E0203B692E
:100E50003A68C3F8E4203B6993F8E030042B00F2D1
:100E60009D803B6993F8E0305A1CD1B23A6982F810
:100E7000E0103A6968335B001344FA89DA808DE048
:100E80003B69002283F8D12088E0FA89BB899A4225
:100E90003DD93B6993F8D130FF2B07D03B6993F8DC
:100EA000D1300133DAB23B6983F8D1203B6993F842
:100EB000D130032B74D93B69022283F8D0203B69DF
:100EC000002283F8D1203B69002283F8D2203B69BD
:100ED00093F8E8300133DAB23B6983F8E8203B69E4
:100EE00093F8E030042B0DD83B6993F8E0305A1C9E
:100EF000D1B23A6982F8E0103A6968335B00134472
:100F0000FA89DA803B69012283F8D32048E03B6903
:100F1000002283F8D0203B69002283F8D1203B696E
:100F2000002283F8E0203BE03B6993F8E030042B9B
:100F30000DD83B6993F8E0305A1CD1B23A6982F877
:100F4000E0103A6968335B001344FA89DA803B6940
:100F500093F8D330002B08D03B6993F8D330013B92
:100F6000DAB23B6983F8D3201BE03B69002283F8A7
:100F7000D0203B69002283F8D1203B69002283F80E
:100F8000D220FB7D39691846FFF766FE09E03B6910
:100F9000002283F8D02004E000BF02E000BF00E0A0
:100FA00000BF1837BD4680BDF406002080B485B070
:100FB00000AF78600B467B807B68FB60FB685A1C47
:100FC000FA60AA221A70FB685A1CFA6055221A703D
:100FD0000023FB722FE0FB7A224AEC2101FB03F392
:100FE0001344D4331B883B81FB685A1CFA60A5224A
:100FF0001A70FB685A1CFA60FA7A1A70FA7AFB685F
:10100000591CF9601749EC2000FB02F20A44E8324F
:1010100012781A703B891B0A99B2FB685A1CFA6055
:10102000CAB21A70FB685A1CFA603A89D2B21A70B6
:10103000FB7A0133FB72FB7A1F2BCCD9FB685A1C5D
:10104000FA600D221A70FB685A1CFA600A221A70A4
:10105000FA687B68D31A9BB218461437BD465DF810
:10106000047B7047F406002080B582B000AFA42155
:101070000948FFF79BFF0346FB80FB88002B06D047
:10108000FB881A460449054808F0D2FA00E000BF80
:101090000837BD4680BD00BF80240020B037002047
:1010A00080B400AF064BD3F8F430054A43F4000394
:1010B000C2F8F43000BFBD465DF8047B704700BF46
:1010C000000C024680B500AF00F052F800BF80BDB2
:1010D00080B582B000AF7860002015F0E5FB00F02D
:1010E00061F800F079F812F04FFB00F0B1F800F071
:1010F00079F800F089F800F09FF8174B1B884FF63D
:10110000FF72934211D0144B1B88002B0BD0124B53
:101110001B889B0223F4FF5323F01F0303F1FF639B
:1011200003F5F82302E00D4B00E00C4B18460DF0E0
:1011300013FB0346002B01D000F076FD12F046FCB5
:10114000012102200CF024FE002015F0B8FB002342
:1011500018460837BD4680BDA007F90B00C00F0830
:1011600080B500AF4FF0FF3015F0FAFC00BF80BD36
:1011700080B582B000AF00237B603B1D1946002084
:1011800011F026FB0346002B03D00C2005F0DEF9FE
:1011900004E07B689B7B184605F0D8F900BF083750
:1011A000BD4680BD80B500AFFFF77AFF15F000FFA8
:1011B000074804F03BF800F04FFC064B93E80300AF
:1011C0000FF00AFD10F00CFB10F0E8FD00BF80BD31
:1011D000400000301C00002080B500AF11F032FF4D
:1011E00000BF80BD80B500AF10200CF095FA0CF068
:1011F00049FA0CF08BF9034A0021012015F032FE68
:1012000000BF80BDFDD5000880B500AF094A0021B0
:101210004FF4807015F026FE012101200CF0B8FD7E
:10122000002102200CF0B4FD002100200CF0B0FDE4
:1012300000BF80BD0DE1000880B500AF034A00216A
:10124000402015F00FFE00BF80BD00BF7D6001088B
:1012500080B500AF07480FF019FD0346002B01D001
:1012600000F0E2FC044A0021202015F0FBFD00BF45
:1012700080BD00BF34000020A113010880B400AF7E
:1012800000BFBD465DF8047B704780B400AF00BF6F
:10129000BD465DF8047B704780B400AF00BFBD461B
:1012A0005DF8047B704780B500AF0021402015F049
:1012B000FBFD00BF80BD80B500AF0021012015F00F
:1012C000F3FD00BF80BD000080B483B000AF786044
:1012D0007B68074A1A607B68064A5A607B68064A40
:1012E0009A6000BF0C37BD465DF8047B704700BFB5
:1012F0000D1300082B1300084713000880B500AF3A
:101300000021202015F0D0FD00BF80BD80B582B047
:1013100000AF786039603B689B001946786810F030
:101320006BF900BF0837BD4680BD80B582B000AF05
:1013300078607B689B00184610F092F803461846C8
:101340000837BD4680BD80B582B000AF7860786850
:1013500010F016F900BF0837BD4680BD80B500AF5C
:1013600000214FF4807015F09FFD00BF80BD80B458
:1013700000AF00BFBD465DF8047B704780B400AF8E
:1013800000BFBD465DF8047B704780B483B000AFFA
:1013900078600B467B8000BF0C37BD465DF8047B50
:1013A0007047000080B483B000AF7860084B5B6882
:1013B00023F480727B68DB4303F480730449134396
:1013C0004B6000BF0C37BD465DF8047B704700BF23
:1013D0000008024680B400AF054B1B68044A43F086
:1013E0000103136000BFBD465DF8047B704700BF7A
:1013F0000004034080B483B000AF7860064B1B68E4
:1014000023F0040204497B6813430B6000BF0C37D0
:10141000BD465DF8047B704700040340B0B483B060
:1014200000AF7860074A7B6814461D460FCD0FC495
:101430002B682360044B01221A7000BF0C37BD4695
:10144000B0BC70476C3900206839002080B500AF0F
:1014500001F0B8FAFFF736FE00F030F800F09CF823
:1014600000F048FB00F0E2F800F056F900F068F9EF
:1014700000F014F900F07CFA00F0D2F900F0A8F8BE
:1014800000F01AF900F036FA01220121084803F0B1
:101490000DFBFFF71FFC0748FFF742FC0649002041
:1014A000FFF7F0F90020FFF713FEFFF759FEFCE706
:1014B000000402421D1400084400002080B598B0CA
:1014C00000AF07F1200340220021184634F00AFC47
:1014D0003B4620220021184634F004FC022003F091
:1014E00041FF4FF4803003F0DFFE0346002B01D0B4
:1014F00000F09AFB03F08AFE264BD3F8F03023F07D
:101500001803244A43F00803C2F8F03007233B6273
:101510004FF480337B620023BB628123FB624FF474
:1015200080733B6310237B6300233B6407F120033C
:10153000184603F0ADFF0346002B01D000F074FB0A
:101540003F233B6002237B600023BB600023FB60E2
:1015500040233B6100237B610023BB610023FB61CF
:101560003B460021184604F0A3FB0346002B01D0A4
:1015700000F05AFB022001F04BFE0E2001F042FA6F
:101580000346002B01D000F04FFB00BF6037BD4683
:1015900080BD00BF000C024680B592B000AF3B4654
:1015A00048220021184634F09DFB4FF400433B6075
:1015B0004FF480237B643B46184604F0BBFD034692
:1015C000002B01D000F030FB00BF4837BD4680BD86
:1015D00080B500AF134B144A1A60124B00221A61F7
:1015E000104B00225A610F4B0022DA610D4B002292
:1015F0009A600C4B00229A610A4B00221A62094B36
:101600000022DA60074B00225A60064B00225A6221
:10161000044801F055FB0346002B01D000F004FB09
:1016200000BF80BDDC3400200054004680B582B08D
:1016300000AF194BD3F88830174A43F00103C2F8C2
:101640008830154BD3F8883003F001037B607B684A
:10165000002206211D2001F071FD1D2001F08BFDEF
:10166000002205211E2001F069FD1E2001F083FDEE
:1016700000220021202001F061FD202001F07BFDEF
:1016800000220021212001F059FD212001F073FDED
:1016900000BF0837BD4680BD000C024680B500AFD4
:1016A0004FF48070FFF77EFE0020FFF7A3FEFFF7E8
:1016B00091FE00BF80BD000080B500AF144B154AFD
:1016C0001A60134B00225A60114B00229A60104B93
:1016D0004FF6FF725A610E4B41F63F721A620C4B85
:1016E00000225A620A4B00229A62094B0022DA62F7
:1016F000074B00221A63064B00225A63044803F08A
:1017000007FA0346002B01D000F08EFA00BF80BD1F
:101710000C3500200044004680B500AF064B074A58
:101720001A60054803F06AFE0346002B01D000F062
:101730007BFA00BF80BD00BF5C3500200060024026
:1017400080B594B000AF07F1340300221A605A60EC
:101750009A60DA601A615A619A613B1D3022002159
:10176000184634F0BFFA2C4B2C4A1A602A4B1F2221
:101770009A60294B00221A61274B00225A61264B9E
:1017800000229A61244B4FF08042DA61224B002202
:101790001A62214B4FF480725A621F4804F012FF04
:1017A0000346002B01D000F03FFA00237B630023A7
:1017B0003B6400237B640023BB6407F134031946B8
:1017C000154805F05DFA0346002B01D000F02CFA15
:1017D000114805F0D9F90346002B01D000F024FA96
:1017E00000233B620023BB600023BB614FF07C53AE
:1017F000FB614FF480733B633B1D01221946064891
:1018000004F062FF0346002B01D000F00DFA00BF88
:101810005037BD4680BD00BF6835002000780046C7
:1018200080B584B000AF3B1D00221A605A609A60F8
:101830002E4B2F4A1A602D4B4FF480025A602B4BCF
:1018400000229A60294B0F22DA60284B00221A618D
:10185000264B00225A61254B4FF080629A61234B40
:101860004FF00052DA61214B00221A621F4B002216
:101870005A621E4B00229A621C4B0722DA621B4BF3
:101880004FF080425A63194B00229A63174B002293
:10189000DA63164B00229A64144B0022DA64134B6D
:1018A00000221A65114B00225A65104B00229A65DE
:1018B0000E4B0022DA650D4B00221A660B4805F02C
:1018C0000DFA0346002B01D000F0AEF900237B6037
:1018D0003B1D1946054806F0E8FA0346002B01D0E7
:1018E00000F0A2F900BF1037BD4680BD983500203A
:1018F0000020004680B584B000AF3B1D00221A6076
:101900005A609A60184B194A1A60174B1F225A6086
:10191000154B00229A60144B0C22DA60124B002205
:101920001A61114B00225A610F4B00229A61082163
:101930000D4806F02BFE0346002B01D000F074F991
:1019400000237B600023BB600023FB603B1D194626
:10195000054807F033FC0346002B01D000F064F982
:1019600000BF1037BD4680BD18370020002C014055
:1019700080B58AB000AF07F11C0300221A605A60DC
:101980009A603B4600221A605A609A60DA601A61D7
:101990005A619A612E4B2F4A1A602D4B00225A60D1
:1019A0002B4B00229A602A4B4FF6FF72DA60284BCD
:1019B00000221A61264B00229A61254806F03AFB64
:1019C0000346002B01D000F02FF90023FB61002318
:1019D0007B6207F11C0319461D4807F0EFFB034625
:1019E000002B01D000F020F960233B6043F2C823B4
:1019F0007B600023BB6000233B613B46002219460D
:101A0000134806F063FF0346002B01D000F00CF9E9
:101A100000237B603B46042219460D4806F056FF22
:101A20000346002B01D000F0FFF83B460822194680
:101A3000074806F04BFF0346002B01D000F0F4F8F6
:101A4000034800F0A9FB00BF2837BD4680BD00BF9A
:101A5000643700200004004080B500AF234B244AC7
:101A60001A60224B4FF4E1325A60204B00229A60F8
:101A70001E4B0022DA601D4B00221A611B4B0C2208
:101A80005A611A4B00229A61184B4FF40042DA61F6
:101A9000164B00221A62154B00225A62134B002289
:101AA0009A62124807F038FC0346002B01D000F080
:101AB000BBF800210D480AF086F80346002B01D040
:101AC00000F0B2F8002109480AF0BBF80346002BE9
:101AD00001D000F0A9F805480AF03AF80346002BB7
:101AE00001D000F0A1F800BF80BD00BFB0370020DA
:101AF0000038014080B588B000AF07F10C03002228
:101B00001A605A609A60DA601A61434BD3F88C30DD
:101B1000414A43F00103C2F88C303F4BD3F88C307C
:101B200003F00103BB60BB683B4BD3F88C303A4AEF
:101B300043F00203C2F88C30374BD3F88C3003F0FB
:101B400002037B607B68344BD3F88C30324A43F01D
:101B50000403C2F88C30304BD3F88C3003F004030C
:101B60003B603B68002242F6E7012C4802F09EFFF2
:101B7000002240F6F8012A4802F098FF01220221D3
:101B8000274802F093FF42F6E703FB6001233B6125
:101B900000237B610023BB6107F10C0319461F483A
:101BA00002F072FD40F6FA03FB6001233B61002363
:101BB0007B610023BB6107F10C031946184802F052
:101BC00063FD4FF40053FB6000233B6100237B6106
:101BD00007F10C031946134802F056FD4FF4104369
:101BE000FB6000233B6100237B6107F10C03194676
:101BF0000B4802F049FD48F21003FB6000233B61F3
:101C000000237B6107F10C031946044802F03CFDF8
:101C100000BF2037BD4680BD000C024600040242D2
:101C2000000002420008024280B400AF72B600BF5A
:101C300000BFFDE780B582B000AF114BD3F8943000
:101C40000F4A43F00403C2F894300D4BD3F894309C
:101C500003F004037B607B6800220121092001F06E
:101C60006DFA092001F087FA00220521422001F0D7
:101C700065FA422001F07FFA00BF0837BD4680BDFB
:101C8000000C024680B58AB000AF786007F11403FB
:101C900000221A605A609A60DA601A617B681B68D9
:101CA000184A934229D1184BD3F8A830164A43F466
:101CB0000043C2F8A830144BD3F8A83003F4004313
:101CC0003B613B69104BD3F88C300F4A43F0010362
:101CD000C2F88C300C4BD3F88C3003F00103FB605E
:101CE000FB6804237B610323BB610023FB6107F1D5
:101CF00014031946054802F0C7FC00BF2837BD464B
:101D000080BD00BF00540046000C024600000242A5
:101D100080B485B000AF78607B681B680B4A934243
:101D20000ED10B4BD3F88830094A43F48053C2F8E4
:101D30008830074BD3F8883003F48053FB60FB688E
:101D400000BF1437BD465DF8047B70470030024089
:101D5000000C024680B483B000AF78607B681B68DB
:101D6000084A934207D1084BD3F88830064A23F437
:101D70008053C2F8883000BF0C37BD465DF8047B45
:101D8000704700BF00300240000C024680B596B09C
:101D900000AF786007F1100348220021184633F0A5
:101DA000A1FF7B681B68164A934225D14FF48053EC
:101DB0003B610023BB6407F11003184604F0BAF935
:101DC0000346002B01D0FFF72FFF0E4BD3F8A830AE
:101DD0000C4A43F40063C2F8A8300A4BD3F8A83089
:101DE00003F40063FB60FB6800220021312001F056
:101DF000A5F9312001F0BFF900BF5837BD4680BDBD
:101E000000440046000C024680B485B000AF786004
:101E10000A4BD3F88830094A43F40033C2F88830BB
:101E2000064BD3F8883003F40033FB60FB6800BF37
:101E30001437BD465DF8047B704700BF000C0246B6
:101E400080B596B000AF786007F1100348220021FA
:101E5000184633F047FF7B681B68174A934226D128
:101E60004FF480433B614FF480733B6507F11003EF
:101E7000184604F05FF90346002B01D0FFF7D4FEAB
:101E80000E4BD3F8A8300D4A43F40013C2F8A83023
:101E90000A4BD3F8A83003F40013FB60FB68002260
:101EA0000421022001F04AF9022001F064F900BF88
:101EB0005837BD4680BD00BF00780046000C024682
:101EC00080B59CB000AF786007F15C0300221A6017
:101ED0005A609A60DA601A6107F1140348220021FF
:101EE000184633F0FFFE7B681B687A4A934240F045
:101EF000ED804FF480637B6110237B6407F1140352
:101F0000184604F017F90346002B01D0FFF78CFEAA
:101F1000714BD3F8A830704A43F02003C2F8A830C0
:101F20006D4BD3F8A83003F020033B613B696A4B4B
:101F3000D3F88C30684A43F00103C2F88C30664B0A
:101F4000D3F88C3003F00103FB60FB68624BD3F8DD
:101F50008C30614A43F00203C2F88C305E4BD3F8F8
:101F60008C3003F00203BB60BB680123FB650223D6
:101F70003B6600237B660023BB660623FB6607F1F6
:101F80005C031946554802F07FFB4FF44073FB6534
:101F900002233B6600237B660023BB660623FB66A9
:101FA00007F15C0319464E4802F06EFB4D4B4E4A5A
:101FB0001A604C4B04225A604A4B00229A60494BEB
:101FC0004FF48062DA60474B08221A61454B0022C9
:101FD0005A61444B01229A61424B4FF48032DA61DC
:101FE000404B00221A623F4B01225A623D4B0122B4
:101FF0009A623C4B0022DA623A4B00221A63394B58
:1020000000225A63374801F0D5FB0346002B01D06C
:10201000FFF70AFE7B68334AC3F88020314A7B68A9
:10202000D36510212F4801F060FF0346002B01D03B
:10203000FFF7FAFD2D4B2E4A1A602C4B03225A60F3
:102040002A4B00229A60294B0022DA60274B00229B
:102050001A61264B4FF400225A61244B01229A61E7
:10206000224B4FF48032DA61204B00221A621F4B60
:1020700001225A621D4B01229A621C4B0022DA6235
:102080001A4B00221A63194B00225A63174801F0B9
:1020900091FB0346002B01D0FFF7C6FD7B68134A76
:1020A000C3F88420114A7B68D36510210F4801F0E2
:1020B0001CFF0346002B01D0FFF7B6FD00220021D4
:1020C0003F2001F03BF83F2001F055F800BF70378A
:1020D000BD4680BD00200046000C024600000242C2
:1020E000000402422836002050020240A0360020A0
:1020F000D001024080B584B000AF78607B681B6877
:10210000124A93421ED1124BD3F8A430104A43F422
:102110000063C2F8A4300E4BD3F8A43003F400637C
:10212000FB60FB6800220021252001F007F8252034
:1021300001F021F800220021262000F0FFFF2620D8
:1021400001F019F800BF1037BD4680BD002C0140DA
:10215000000C024680B485B000AF78607B681B68D5
:102160000B4A93420ED10B4BD3F89C30094A43F0F3
:102170000203C2F89C30074BD3F89C3003F00203F3
:10218000FB60FB6800BF1437BD465DF8047B7047F9
:1021900000040040000C024680B58AB000AF7860B1
:1021A00007F1140300221A605A609A60DA601A611B
:1021B0007B681B68234A93423FD1234BD3F88C3072
:1021C000214A43F00103C2F88C301F4BD3F88C3006
:1021D00003F001033B613B691B4BD3F88C301A4A77
:1021E00043F00203C2F88C30174BD3F88C3003F065
:1021F0000203FB60FB684FF4C0637B610223BB6199
:102200000023FB6100233B6202237B6207F114037E
:1022100019460E4802F038FA4FF480437B610223DE
:10222000BB610023FB6100233B6202237B6207F159
:1022300014031946064802F027FA00BF2837BD46A6
:1022400080BD00BF00040040000C024600000242B6
:102250000004024280B59CB000AF786007F15C03D7
:1022600000221A605A609A60DA601A6107F114035A
:1022700048220021184633F035FD7B681B68794AF7
:10228000934240F0EA8001237B610223BB6107F1A6
:102290001403184603F04EFF0346002B01D0FFF74E
:1022A000C3FC714BD3F8A4306F4A43F48043C2F8A7
:1022B000A4306D4BD3F8A43003F480433B613B69F9
:1022C000694BD3F88C30684A43F00203C2F88C3073
:1022D000654BD3F88C3003F00203FB60FB68624B64
:1022E000D3F88C30604A43F00103C2F88C305E4B67
:1022F000D3F88C3003F00103BB60BB684FF480530C
:10230000FB6502233B6600237B660023BB66072335
:10231000FB6607F15C031946544802F0B5F94FF427
:102320008073FB6502233B6600237B660023BB664C
:102330000723FB6607F15C0319464D4802F0A4F938
:102340004C4B4D4A1A604B4B0B225A60494B0022B2
:102350009A60484B0022DA60464B00221A61454BD6
:102360004FF400225A61434B00229A61414B0022F4
:10237000DA61404B00221A623E4B01225A623D4B09
:1023800001229A623B4B0022DA623A4B00221A6326
:10239000384B00225A63374801F00CFA0346002BF1
:1023A00001D0FFF741FC7B68324AC3F88020314AF4
:1023B0007B68D36510212F4801F097FD0346002B61
:1023C00001D0FFF731FC2D4B2D4A1A602B4B0C220C
:1023D0005A602A4B00229A60284B4FF48062DA60E0
:1023E000264B08221A61254B00225A61234B0022FA
:1023F0009A61224B0022DA61204B00221A621F4BA5
:1024000001225A621D4B01229A621C4B0022DA62A1
:102410001A4B00221A63194B00225A63174801F025
:10242000C9F90346002B01D0FFF7FEFB7B68134A76
:10243000DA67124A7B68D3651021104801F055FD18
:102440000346002B01D0FFF7EFFB002207212E20CF
:1024500000F074FE2E2000F08EFE00BF7037BD46E7
:1024600080BD00BF00380140000C0246000402425B
:102470000000024278380020D0000240F0380020EE
:102480005000024080B582B000AF78607B681B6866
:10249000134A93421FD1134BD3F8A430114A23F4AB
:1024A0008043C2F8A4304FF480510F4802F042FA42
:1024B0004FF480710D4802F03DFA7B68D3F880300C
:1024C000184601F00BFA7B68DB6F184601F006FA3C
:1024D0002E2000F05EFE00BF0837BD4680BD00BF65
:1024E00000380140000C0246000402420000024293
:1024F00080B483B000AF0346FB7197F90730002B1F
:102500000BDBFB7903F01F02074997F907305B09E2
:10251000012000FA02F241F8232000BF0C37BD462B
:102520005DF8047B704700BF00E100E080B483B039
:1025300000AF0346FB7197F90730002B12DBFB79E4
:1025400003F01F020A4997F907305B09012000FADE
:1025500002F2203341F82320BFF34F8F00BFBFF3B7
:102560006F8F00BF00BF0C37BD465DF8047B70471E
:1025700000E100E080B400AF064BD3F80832054A12
:1025800023F48033C2F8083200BFBD465DF8047BF7
:10259000704700BF000C024680B483B000AF786083
:1025A0007B686FF001021A6100BF0C37BD465DF811
:1025B000047B704780B483B000AF78607B681B6990
:1025C00003F00103012B01D1012300E00023184691
:1025D0000C37BD465DF8047B704780B400AF00BF88
:1025E000FDE780B400AF00BFFDE780B400AF00BFDF
:1025F000FDE780B400AF00BFFDE780B400AF00BFCF
:10260000FDE780B400AF00BFBD465DF8047B7047B6
:1026100080B400AF00BFBD465DF8047B704780B456
:1026200000AF00BFBD465DF8047B704780B500AFCA
:1026300000F066FA00BF80BD80B500AF034804F02B
:1026400085F9024804F0CAFA00BF80BD6835002051
:1026500080B500AF0C4B5B6D03F01003102B05D160
:10266000094B10229A6510F07DFF0AE0064B5B6D66
:1026700003F04003402B04D1034B40229A6510F035
:10268000EDFE00BF80BD00BF000C024680B500AF6C
:10269000024801F0BDFA00BF80BD00BFF038002045
:1026A00080B500AF024801F0B3FA00BF80BD00BFA3
:1026B0007838002080B500AF024801F0A9FA00BFC9
:1026C00080BD00BFA036002080B500AF024801F0F9
:1026D0009FFA00BF80BD00BF2836002080B500AF44
:1026E000024805F0A3FF00BF80BD00BF18370020DF
:1026F00080B500AF024805F099FF00BF80BD00BF64
:102700001837002080B500AF024807F059F800BF25
:1027100080BD00BFB037002080B500AF024802F096
:102720007AFB00BF80BD00BF0C35002080B500AF34
:102730000648FFF73FFF0346012B04D10348FFF78C
:102740002BFF10F03DFF00BF80BD00BF00440140E3
:1027500080B500AF024805F045F800BF80BD00BF5E
:102760009835002080B500AF064B1B68002B02D0C7
:10277000044B1B689847FFF7FDFEBFF36F8F00BF48
:1027800000BF80BD307C002080B500AF3D20FFF74A
:10279000CDFE0C4B1B68002B02D00A4B1B689847E0
:1027A000094B1B78DBB2002B07D0002205213D200E
:1027B00000F0C4FC044B00221A703D20FFF798FE85
:1027C00000BF80BD347C0020507C002080B586B0E6
:1027D00000AF7860144A154BD31A7B617B693B616B
:1027E000134B1B68002B02D1114B124A1A60104B7D
:1027F0001A687B6813443A699A4207D233F07AFA2E
:1028000003460C221A604FF0FF3309E0084B1B68A7
:10281000FB60074B1A687B681344054A1360FB682A
:1028200018461837BD4680BD000002200010000089
:1028300080390020E8C4002080B400AF074BD3F8F3
:102840008830064A43F47003C2F88830034B044AC8
:102850009A6000BFBD465DF8047B704700ED00E064
:102860000000000880B489B000AF4F4BDB6903F073
:102870000C03082B02D00C2B0BD07DE04A4B1B68BD
:102880001B0D03F00103494A22FA03F3484A13607F
:1028900076E0454B9B6AFB61434B5B6B7B61FB695D
:1028A0001B0A03F0070301333B617B69C3F3080391
:1028B0000133FB607B691B0E03F07F030133BB60B8
:1028C000FB6903F01003002B0BD0374B9B6BDB082D
:1028D000C3F30C0307EE903AF8EE677AC7ED067A79
:1028E00002E04FF00003BB61FB6903F003037B6070
:1028F0007B68022B03D07B68032B03D00CE02D4BAD
:10290000FB610CE0284B1B681B0D03F00103274AF9
:1029100022FA03F3FB6102E00023FB6100BFFB69C5
:1029200007EE903AF8EE676A3B6907EE903AF8EEE8
:10293000677A86EEA77AFB6807EE903AF8EE676A48
:1029400097ED066ADFED1C5AC6EE257A76EEA77A79
:1029500067EE277AC7ED007ABB6807EE903AB8EECB
:10296000677AD7ED006AC6EE877AFCEEE77A17EE53
:10297000902A0F4B1A6003E00D4B0E4A1A6000BFFD
:10298000094B1B6A03F007030C4AD35CFB61084B3D
:102990001A68FB6922FA03F3054A136000BF243763
:1029A000BD465DF8047B7047000C02460048E80114
:1029B000580000200024F40000000046A086030810
:1029C000FEE7000080B500AF0D4B1B680C4A43F4D6
:1029D00080731360032000F0A6FBFFF743FF042081
:1029E00000F016FC0E2000F00DF80346002B01D07D
:1029F000012302E0FFF71EF90023184680BD00BF47
:102A00000020024080B584B000AF78600023FB60F6
:102A1000364B1B78002B01D1012362E0344B1B683D
:102A200003F00403042B0CD1324B1A682F4B1B7894
:102A300019464FF47A73B3FBF1F3B2FBF3F3FB6087
:102A40003DE02D4BD3F8E03003F44003BB60BB689E
:102A5000B3F5000F25D0BB68B3F5000F2ED8BB68C7
:102A6000002B04D0BB68B3F5800F0DD026E0214BBE
:102A70001A681E4B1B7819464FF4FA53B3FBF1F357
:102A8000B2FBF3F3FB601AE0184B1B781A464FF4C5
:102A90007A73B3FBF2F34FF4FA42B2FBF3F3FB6049
:102AA0000DE0124B1B781A464FF47A73B3FBF2F326
:102AB0004FF40042B2FBF3F3FB6000E000BFF868A4
:102AC00000F076FB0346002B01D0012309E0002231
:102AD00079684FF0FF3000F031FB084A7B681360E3
:102AE000002318461037BD4680BD00BF600000209F
:102AF00010E000E058000020000C02465C000020BE
:102B000080B400AF064B1B781A46064B1B68134473
:102B1000044A136000BFBD465DF8047B704700BFE8
:102B2000600000208439002080B400AF034B1B6894
:102B30001846BD465DF8047B704700BF843900200D
:102B400080B483B000AF7860064BD3F8802005498D
:102B50007B681343C1F8803000BF0C37BD465DF879
:102B6000047B70470020024680B483B000AF7860D9
:102B7000074BD3F880207B68DB4305491340C1F83D
:102B8000803000BF0C37BD465DF8047B704700BF46
:102B90000020024680B483B000AF7860064BD3F8C3
:102BA000842005497B681343C1F8843000BF0C378B
:102BB000BD465DF8047B70470020024680B483B0B8
:102BC00000AF7860074BD3F884207B68DB4305496E
:102BD0001340C1F8843000BF0C37BD465DF8047B5C
:102BE000704700BF0020024680B483B000AF786019
:102BF000054B1A6804497B6813430B6000BF0C3710
:102C0000BD465DF8047B70470020024680B483B067
:102C100000AF7860064B1A687B68DB4304491340B9
:102C20000B6000BF0C37BD465DF8047B704700BFEA
:102C30000020024680B483B000AF7860054B5A682C
:102C400004497B6813434B6000BF0C37BD465DF8F9
:102C5000047B70470020024680B483B000AF7860E8
:102C6000064B5A687B68DB43044913404B6000BF46
:102C70000C37BD465DF8047B704700BF002002465C
:102C800080B483B000AF7860044A7B68136100BFF2
:102C90000C37BD465DF8047B704700BF002002463C
:102CA00080B483B000AF7860044A7B68D36000BF13
:102CB0000C37BD465DF8047B704700BF002002461C
:102CC00080B588B000AF78600023FB600023FB77FD
:102CD0007B68002B02D10123FB7727E17B681B680F
:102CE0001B6803F00043B3F1004F02D10123FB77CF
:102CF0001CE17B6893F82930DBB2002B09D17B689B
:102D0000002283F828207B680022DA627868FEF7C8
:102D1000B9FF7B681B681B6803F03003BB617B68ED
:102D20005A697B681B691A437B681B6A1A437B6874
:102D30009B691A437B68DB691A437B68DB68134332
:102D40007B617B681B681A687B4B13407A6812684A
:102D500079690B4313607B685B68B3F5006F0CD136
:102D6000764B1B68754A23F400631360734B5B68F2
:102D7000724A43F4006353601DE07B685B68B3F5FF
:102D8000C05F0CD16D4B1B686C4A43F40063136049
:102D90006A4B5B68694A23F4006353600BE0674B3E
:102DA0001B68664A23F400631360644B5B68634AE4
:102DB00023F4006353607B689B68B3F5A04F14D085
:102DC000B3F5A04F2BD8012B1CD0B3F5804F26D1E3
:102DD0005A4B1B68594A43F480431360574B5B6856
:102DE000564A23F48043536026E0544B1B68534AF1
:102DF00023F480431360514B5B68504A43F4804393
:102E0000536019E04D4B1B684C4A43F480431360F8
:102E10004A4B5B68494A43F4804353600CE0474B9C
:102E20001B68464A23F480431360444B5B68434A63
:102E300023F48043536000BF7B681B681B6803F06A
:102E40003003002B16D0BB69002B13D13C4B1B6801
:102E50009B093C4AA2FB03239B095A1C13469B0077
:102E600013449B00FB6002E0FB68013BFB60FB68D6
:102E7000002BF9D17B681B68304A934202D14FF492
:102E8000003301E04FF480233B617B685B6A03F011
:102E90000303002B3AD07B685B6A03F01003002B1E
:102EA00003D03869FFF7A0FE02E03869FFF7AEFEF5
:102EB0007B685B6A03F02003002B03D03869FFF7BF
:102EC000B9FE02E03869FFF7C7FE3869FFF7E8FE90
:102ED0003869FFF7D5FE7B685B6A03F00203002BBD
:102EE00003D03869FFF756FE02E03869FFF766FE47
:102EF0007B685B6A03F00103002B03D03869FFF79E
:102F00001FFE09E03869FFF72FFE05E03869FFF77B
:102F100055FE3869FFF728FE7B6893F82930DBB24D
:102F2000002B03D17B68012283F82920FB7F184600
:102F30002037BD4680BD00BF0F7400FE0054004620
:102F400058000020632D3E0580B485B000AF786046
:102F50007B6803F00703FB600C4BDB68BB60BA685F
:102F60004FF6FF031340BB60FB681A02BB681343B4
:102F700043F0BF6343F40033BB60044ABB68D360D3
:102F800000BF1437BD465DF8047B704700ED00E0DC
:102F900080B400AF044BDB681B0A03F0070318463C
:102FA000BD465DF8047B704700ED00E080B483B05F
:102FB00000AF0346FB7197F90730002B0BDBFB7961
:102FC00003F01F02074997F907305B09012000FA57
:102FD00002F241F8232000BF0C37BD465DF8047BA8
:102FE000704700BF00E100E080B483B000AF03464B
:102FF000FB7197F90730002B12DBFB7903F01F02FE
:103000000A4997F907305B09012000FA02F22033E0
:1030100041F82320BFF34F8F00BFBFF36F8F00BF76
:1030200000BF0C37BD465DF8047B704700E100E04F
:1030300080B483B000AF0346FB7197F90730002BD3
:103040000CDBFB7903F01F02074997F907305B0996
:10305000012000FA02F2403341F8232000BF0C3770
:10306000BD465DF8047B704700E100E080B483B0AA
:1030700000AF03463960FB7197F90730002B0ADB7C
:103080003B68DAB20C4997F907301201D2B20B440F
:1030900083F800230AE03B68DAB20849FB7903F0C1
:1030A0000F03043B1201D2B20B441A7600BF0C3757
:1030B000BD465DF8047B704700E100E000ED00E0F4
:1030C00080B489B000AFF860B9607A60FB6803F043
:1030D0000703FB61FB69C3F10703042B28BF04232B
:1030E000BB61FB690433062B02D9FB69033B00E09B
:1030F00000237B614FF0FF32BB6902FA03F3DA432E
:10310000BB681A407B699A404FF0FF317B6901FA36
:1031100003F3D9437B680B40134318462437BD465D
:103120005DF8047B704780B582B000AF7860786846
:10313000FFF70AFF00BF0837BD4680BD80B586B0E7
:1031400000AF0346B9607A60FB73FFF721FF0346C7
:1031500003F007037B617A68B9687869FFF7B0FF0D
:10316000024697F90F3011461846FFF77FFF00BF60
:103170001837BD4680BD80B582B000AF0346FB71F5
:1031800097F907301846FFF711FF00BF0837BD4613
:1031900080BD80B582B000AF0346FB7197F9073060
:1031A0001846FFF721FF00BF0837BD4680BD00006D
:1031B00080B483B000AF78607B68013BB3F1807F5F
:1031C00001D301230DE00A4A7B68013B5360084BA1
:1031D00000229A60064B1B68054A43F00303136004
:1031E000002318460C37BD465DF8047B704700BFCE
:1031F00010E000E080B582B000AF0346FB7197F9A4
:1032000007301846FFF714FF00BF0837BD4680BDE2
:1032100080B483B000AF78607B68042B44D801A2EF
:1032200052F823F047320008653200088732000860
:10323000A9320008393200081F4B1B681E4A43F0B0
:103240000403136031E01C4B1B681B4A23F004038A
:1032500013601A4BD3F8E030184A23F44003C2F845
:10326000E03022E0144B1B68134A23F00403136080
:10327000124BD3F8E03023F44003104A43F48003A8
:10328000C2F8E03011E00C4B1B680B4A23F004033A
:1032900013600A4BD3F8E03023F44003074A43F4A9
:1032A0000003C2F8E03000E000BF00BF0C37BD46AD
:1032B0005DF8047B704700BF10E000E0000C0246A0
:1032C00080B582B000AF78607B68002B01D101230C
:1032D00054E07B685B7FDBB2002B05D17B6800226A
:1032E0001A777868FEF714FD7B6802225A777B68AC
:1032F0001B79002B0CD17B681B68224A5A617B68C2
:103300001B689A687B681B6822F018029A600CE0C0
:103310007B6899687B68DB681A46786800F0BCF9BE
:103320000346002B01D0012328E07B685B79002B4A
:1033300005D17B681B684FF0FF321A6104E07B689F
:103340001B687A6812691A617B681B689B6823F0A6
:1033500060017B685A697B681B680A439A607B68D6
:103360001B689B6823F080017B689A697B681B68F7
:103370000A439A607B6801225A770023184608376F
:10338000BD4680BDB71DC10480B582B000AF786076
:103390007B68002B01D101231FE07B685B7FDBB2E0
:1033A000022B01D1022318E07B6802225A777B6846
:1033B0001B689A687B681B6842F001029A607B6810
:1033C0001B6800225A607868FEF7C4FC7B68002204
:1033D0005A777B6800221A77002318460837BD46C3
:1033E00080BD80B586B000AFF860B9607A60002318
:1033F0003B61FB6802225A77FB681B6A032B06D0ED
:10340000032B29D8012B19D0022B1ED024E0002336
:103410007B610AE07B699B00BA681A44FB681B6801
:1034200012681A607B6901337B617A697B689A4212
:10343000F0D3FB681B681B683B610EE07A68B968D3
:10344000F86800F05EF8386107E07A68B968F868F3
:1034500000F0E7F8386100E000BFFB6801225A770E
:103460003B6918461837BD4680BD80B586B000AFB1
:10347000F860B9607A6000233B61FB6802225A77EA
:10348000FB681B689A68FB681B6842F001029A603F
:10349000FB681B6A032B06D0032B29D8012B19D0FC
:1034A000022B1ED024E000237B610AE07B699B0095
:1034B000BA681A44FB681B6812681A607B6901339A
:1034C0007B617A697B689A42F0D3FB681B681B6852
:1034D0003B610EE07A68B968F86800F012F838616C
:1034E00007E07A68B968F86800F09BF8386100E096
:1034F00000BFFB6801225A773B6918461837BD4662
:1035000080BD80B489B000AFF860B9607A600023F4
:10351000FB6123E0FB699B00BA6813441B781A0621
:10352000FB699B000133B9680B441B781B041A43E9
:10353000FB699B000233B9680B441B781B021A43DA
:10354000FB699B000333B9680B441B781946FB6881
:103550001B680A431A60FB690133FB617B689B08A7
:10356000FA699A42D6D37B6803F00303002B4FD04D
:103570007B6803F00303012B07D1FB699B00BA684A
:103580001344FA6812681B7813707B6803F0030316
:10359000022B17D1FB699B00BA6813441B781BB23E
:1035A0001B021AB2FB699B000133B9680B441B78FC
:1035B0001BB213431BB27B83FB681B687B617B6977
:1035C0007A8B1A807B6803F00303032B20D1FB69FD
:1035D0009B00BA6813441B781BB21B021AB2FB692A
:1035E0009B000133B9680B441B781BB213431BB219
:1035F0007B83FB681B687B617B697A8B1A80FB6924
:103600009B000233BA681344FA6812681B7813707F
:10361000FB681B681B6818462437BD465DF8047BB1
:10362000704780B487B000AFF860B9607A6000235B
:103630007B6113E07B699B00BA6813441B881A0402
:103640007B699B000233B9680B441B881946FB68F1
:103650001B680A431A607B6901337B617B685B08E6
:103660007A699A42E6D37B6803F00103002B09D004
:10367000FB681B683B617B699B00BA6813441A882E
:103680003B691A80FB681B681B6818461C37BD46DF
:103690005DF8047B7047000080B487B000AFF8602D
:1036A000B9607A600023FB751F233B61BB6803F0A0
:1036B0000103002B02D10123FB7563E000BF3B69CE
:1036C0005A1E3A61002B09D03B6903F01F03BA6808
:1036D00022FA03F303F00103002BF0D07B68182BD0
:1036E00046D801A252F823F0773700087137000856
:1036F000713700087137000871370008713700080A
:103700007137000871370008653700087137000805
:1037100071370008713700087137000871370008E9
:1037200071370008713700085937000871370008F1
:1037300071370008713700087137000871370008C9
:1037400071370008713700084D3700083B69062BB8
:1037500013D90123FB7510E03B69072B0FD9012317
:10376000FB750CE03B690F2B0BD90123FB7508E0BF
:103770000123FB7506E000BF04E000BF02E000BFCC
:1037800000E000BFFB7D002B0DD1FB681B68BA6811
:103790005A61FB681B689B6823F01801FB681B6873
:1037A0007A680A439A60FB7D18461C37BD465DF86F
:1037B000047B704780B584B000AF7860FFF7B4F940
:1037C000F8607B68002B01D1012372E07B681B68E5
:1037D0003A4A934221D07B681B68394A93421CD0F5
:1037E0007B681B68374A934217D07B681B68364A50
:1037F000934212D07B681B68344A93420DD07B6899
:103800001B68334A934208D07B681B68314A934255
:1038100003D07B681B68304A93427B68002283F8A0
:103820004C207B6893F85430DBB2002B0ED17B68C0
:1038300000221A667B6800225A667B6800229A661C
:103840007B680022DA667B6800221A677B680222A6
:1038500083F854207B681B685A697B681B6842F0B8
:1038600006025A610FE0FFF75FF90246FB68D31AC0
:10387000052B08D97B6810229A657B68032283F8A0
:103880005420012315E07B681B685B6903F001038A
:10389000002BE8D1786800F089FB7B685A6B7B6865
:1038A0001A657B6800229A657B68012283F85420A0
:1038B000002318461037BD4680BD00BF50000240AF
:1038C000D000024050010240D001024050020240AC
:1038D000D002024050030240D003024080B584B0C1
:1038E00000AF7860FFF720F9F8607B68002B01D10A
:1038F000012384E07B681B6823F47F6323F00F03BC
:10390000BB607B681B685A697B681B6842F00602D3
:103910005A610FE0FFF708F90246FB68D31A052B3E
:1039200008D97B6810229A657B68032283F85420AB
:10393000012364E07B681B685B6903F00103002BD3
:10394000E8D17B681B6800221A607B681B68002234
:103950005A617B681B6800221A647B681B6800221E
:103960005A647B681B6800229A647B681B6800228B
:10397000DA647B681B6800221A657B681B6800227A
:10398000DA67BB685A687B681B68C3F30B03503B5C
:10399000DB0903F01F03012101FA03F3DB431A40A3
:1039A000BB685A607B681B684FF4FE42DA607B6834
:1039B00000221A667B6800225A667B6800229A669B
:1039C0007B680022DA667B6800221A677B68002227
:1039D0005A677B68DB6D002B02D07B680022DA65BA
:1039E0007B6800221A657B6800229A657B6800224A
:1039F00083F854207B68002283F84C20002318466B
:103A00001037BD4680BD80B584B000AFF860B960A6
:103A10007A603B60FB68002B01D101234FE0FB681B
:103A200093F84C30012B01D1022348E0FB680122BE
:103A300083F84C20FB6893F85430DBB2012B36D16D
:103A4000FB68022283F85420FB6800229A653B68D9
:103A50007A68B968F86800F084FAFB681B685A69EC
:103A6000FB681B6842F4BA425A61FB685B6E002B2C
:103A700007D0FB681B685A69FB681B6842F4007238
:103A80005A61FB681B6F002B07D0FB681B685A69E3
:103A9000FB681B6842F400525A61FB681B685A6954
:103AA000FB681B6842F001025A61002307E0FB68D3
:103AB00040229A65FB68002283F84C2001231846B7
:103AC0001037BD4680BD80B584B000AF7860FFF789
:103AD0002BF8F8607B68002B01D101236BE07B6839
:103AE00093F85430DBB2022B08D07B6820229A6511
:103AF0007B68002283F84C2001235CE07B681B6814
:103B00005A697B681B6842F004025A617B6805228F
:103B100083F8542020E0FFF707F80246FB68D31A29
:103B2000052B19D97B689B6D43F010027B689A6561
:103B30007B68032283F854207B681B6D03F08003AD
:103B4000002B03D07B685B6F01221A737B68002215
:103B500083F84C2001232EE07B681B681B6903F46B
:103B60000053002BD7D07B681B685A697B681B68A1
:103B700042F002025A617B68042283F854207B6879
:103B80001B684FF4FE42DA607B68012283F8542000
:103B90007B681B6D03F08003002B07D07B685B6F95
:103BA00001221A737B681B6800229A647B680022DA
:103BB00083F84C20002318461037BD4680BD80B4E2
:103BC00083B000AF78607B68002B01D1012319E03E
:103BD0007B6893F85430DBB2022B04D07B68202240
:103BE0009A6501230EE07B68042283F854207B68E9
:103BF0001B685B697A68126843F4005343F004035E
:103C00005361002318460C37BD465DF8047B7047AE
:103C100080B586B000AF78607B681B6823F47F6353
:103C200023F00F037B617B681B68C3F30B03503BDE
:103C3000DB0903F01F03012202FA03F33B617B69F6
:103C4000DB683A691340FB60FB68002B00F03B81A6
:103C50007B681B681B6903F48063002B11D07B68B1
:103C60001B685B6903F48063002B0AD07B681B68C8
:103C70004FF48062DA607B689B6D43F001027B68E1
:103C80009A657B681B681B6903F40063002B11D0E5
:103C90007B681B685B6903F40063002B0AD07B68B8
:103CA0001B684FF40062DA607B689B6D43F0020290
:103CB0007B689A657B681B681B6903F48053002B43
:103CC00011D07B681B685B6903F48053002B0AD01A
:103CD0007B681B684FF48052DA607B689B6D43F011
:103CE00004027B689A657B681B681B6903F4804348
:103CF000002B11D07B681B685B6903F48043002BA9
:103D00000AD07B681B684FF48042DA607B689B6D49
:103D100043F008027B689A657B681B681B6903F4A3
:103D20000073002B13D07B681B685B6903F400737E
:103D3000002B0CD07B681B684FF40072DA607B6844
:103D40005B6E002B03D07B685B6E786898477B685E
:103D50001B681B6903F40053002B4CD07B681B6865
:103D60005B6903F40053002B45D07B681B684FF45C
:103D70000052DA607B6893F85430DBB2042B2ED10A
:103D80007B681B685A697B681B6822F400525A6181
:103D90007B681B685A697B681B6842F002025A61A3
:103DA0007B68012283F854207B681B6D03F080033D
:103DB000002B07D07B685B6F01221A737B681B683E
:103DC00000229A647B68002283F84C207B68DB6EBB
:103DD000002B7AD07B68DB6E7868984775E07B684B
:103DE000052283F854207B681B6F002B03D07B686F
:103DF0001B6F786898477B681B681B6903F48073A6
:103E0000002B39D07B681B685B6903F48073002B3F
:103E100032D07B681B6D03F08003002B12D07B68CF
:103E20001B68DB6F002B16D17B681B689B6C002B1B
:103E300011D17B68012283F854207B685B6F0122DB
:103E40001A7308E07B681B689B6C002B03D17B68AE
:103E5000012283F854207B681B684FF44072DA60BB
:103E60007B68002283F84C207B681B6E002B03D0FC
:103E70007B681B6E786898477B689B6D002B25D00C
:103E80007B681B685A697B681B6842F002025A61B2
:103E90007B68012283F854207B681B6D03F080034C
:103EA000002B03D07B685B6F01221A737B680022B2
:103EB00083F84C207B689B6E002B07D07B689B6E41
:103EC0007868984702E000BF00E000BF1837BD46A1
:103ED00080BD80B483B000AF78607B689B6D18466E
:103EE0000C37BD465DF8047B704780B485B000AFE9
:103EF000786039607B68002B01D101232BE07B685F
:103F00001B6823F47F6323F00F03FB607B681B684F
:103F1000C3F30B03503BDB0903F01F03012202FA3A
:103F200003F3BB603B6803F01003002B12D03B6827
:103F300003F01103112B06D1FB685A68BB681A43C2
:103F4000FB685A6006E0FB685A68BB68DB431A40AE
:103F5000FB685A60002318461437BD465DF8047BA1
:103F6000704780B485B000AFF860B9607A603B609C
:103F7000FB681B689B6C1B0C1B043A6891B2FA68C7
:103F800012680B439364FB681B684FF4FE42DA60CF
:103F9000FB681B68BA68DA64FB681B687A681A6594
:103FA00000BF1437BD465DF8047B704780B485B010
:103FB00000AF78607B681B6AFB607B681B685B698D
:103FC00023F443017B681B68FA680A435A617B68E3
:103FD0005A697B68DB691A437B681B691A437B68F3
:103FE0009B691343FB607B681B68554A934222D050
:103FF0007B681B68534A93421DD07B681B68524AFA
:10400000934218D07B681B68504A934213D07B6858
:104010001B684F4A93420ED07B681B684D4A9342FF
:1040200009D07B681B684C4A934204D07B681B68AC
:104030004A4A934201D1012300E00023002B12D011
:104040007B68DA6A7B689B6A013B1B0503F07C7323
:104050001A437B685B6A013B1B0103F47C731343C7
:10406000FA681343FB607B681B681B6C03F08021BC
:104070007B681B68FA680A431A647B689A687B68E5
:104080005B6803F03F031A437B681B6B1343FB60C1
:104090007B68DB68B3F5806F31D17B681B68284A89
:1040A000934222D07B681B68264A93421DD07B68CE
:1040B0001B68254A934218D07B681B68234A9342A9
:1040C00013D07B681B68224A93420ED07B681B6822
:1040D000204A934209D07B681B681F4A934204D050
:1040E0007B681B681D4A934201D1012300E0002335
:1040F000002B0DD0FB6843F48063FB6008E07B6815
:10410000DB68B3F5007F03D1FB6843F40073FB6009
:104110007B681B685A6C124B13407A681268F96806
:104120000B4353647B681B6800229A647B681B689E
:104130000022DA6700BF1437BD465DF8047B704784
:1041400050000240D000024050010240D001024025
:1041500050020240D002024050030240D00302400D
:10416000C031E03C80B586B000AF78607B68002B42
:1041700003D07B685B6F002B01D1012382E07B6859
:1041800093F85430FB757B681B685B6903F48033DC
:104190003B61FB7D012B05D0FB7D022B6AD13B6986
:1041A000002B67D07B6893F85430DBB2012B57D1DA
:1041B0007B6893F84C30012B01D1022362E07B68CD
:1041C000012283F84C207B68022283F854207B680C
:1041D0005B6F02221A737B6800229A657B685B6FB3
:1041E00000221A617B681B685A697B681B6842F46D
:1041F000BA425A617B685B6E002B07D07B681B68F4
:104200005A697B681B6842F400725A617B681B6FB5
:10421000002B07D07B681B685A697B681B6842F4D7
:1042200000525A617B685B6F1B6807F10C0100222A
:10423000184600F02BF87B685B6F1B6819467B689B
:104240001A680B0C1B0413607B685B6F1B681A46B3
:104250004FF6FC731340F9687A6812680B43D36712
:104260007B681B685A697B681B6842F001025A61CF
:10427000002307E07B6840229A657B68002283F870
:104280004C20012318461837BD4680BD80B485B048
:1042900000AFF860B9607A60BB68002B02D0BB68E1
:1042A000064A1A607B68002B02D07B6805221A60E0
:1042B00000BF1437BD465DF8047B7047000001F86D
:1042C00080B586B000AFF860B9607A601F4B1B788C
:1042D000012B01D1022334E01C4B01221A701B4B2D
:1042E00000225A604FF47A7000F070F80346FB75B4
:1042F000FB7D002B21D1154AFB689360144B3B6179
:10430000FB6823F00043012B04D17968B86800F002
:10431000A1F803E07968B86800F0D8F84FF47A7033
:1043200000F054F80346FB753B691A68FB6823F0FC
:104330000043DB431A403B691A60044B00221A70A9
:10434000FB7D18461837BD4680BD00BF8839002068
:104350002820024080B483B000AF0023FB710B4BD8
:104360009B6A002B0BDA094B094A9A60074B094AF2
:104370009A60064B9B6A002B01DA0123FB71FB79E3
:1043800018460C37BD465DF8047B7047002002409C
:1043900023016745AB89EFCD80B483B000AF012323
:1043A000FB71094B9B6A084A43F000439362064B3A
:1043B0009B6A002B01DA0023FB71FB7918460C374E
:1043C000BD465DF8047B70470020024080B586B092
:1043D00000AF7860FEF7A8FB78611C4B3B610DE0F5
:1043E0007B68B3F1FF3F09D0FEF79EFB02467B6975
:1043F000D31A7A689A4201D8032323E03B691B68E9
:1044000003F44033002BEBD13B691A6842F2FA0304
:104410001340FB60FB68002B0AD00D4B5A68FB6809
:1044200013430B4A53603B69FA681A60012309E0A1
:104430003B691B6803F00103002B02D03B6901229A
:104440001A60002318461837BD4680BD2020024060
:104450008839002080B48BB000AF786039600423C5
:1044600087F827307B683B623B68FB61164BBB617A
:10447000BB691B6843F00102BB691A60EFF310834C
:104480003B613B697B6172B600BFFB691A683B6A9E
:104490001A603B6A04333B62FB690433FB6197F8A3
:1044A0002730013B87F8273097F82730002BECD1D5
:1044B0007B69FB60FB6883F3108800BF00BF2C376B
:1044C000BD465DF8047B70472820024080B48BB065
:1044D00000AF78603960202387F827307B683B6223
:1044E0003B68FB61174BBB61BB691B6843F48043AE
:1044F00043F00103BA691360EFF310833B613B693A
:104500007B6172B600BFFB691A683B6A1A603B6A3E
:1045100004333B62FB690433FB6197F82730013BAE
:1045200087F8273097F82730002BECD17B69FB60A8
:10453000FB6883F3108800BF00BF2C37BD465DF8D1
:10454000047B70472820024080B586B000AF7860B9
:104550003960314B1B78012B01D1022358E02E4BDF
:1045600001221A702C4B00225A604FF47A70FFF728
:104570002DFF0346FB75FB7D002B45D17B681B6837
:10458000254A9360254BFB607B681B6823F0004342
:10459000042B08D100F044F84FF47A70FFF716FFAF
:1045A0000346FB7522E03B684FF0FF321A607B68E0
:1045B0005B683B6112E0386900F048F84FF47A70AC
:1045C000FFF704FF0346FB75FB7D002B03D03B6820
:1045D0003A691A600AE03B6901333B617B685A68BB
:1045E0007B689B6813443A699A42E4D3FB681A6873
:1045F0007B681B6823F0004323F47E7343F47E73CF
:10460000DB431A40FB681A60034B00221A70FB7DE3
:1046100018461837BD4680BD883900202820024042
:1046200080B483B000AF084B7B607B681B6843F4A9
:10463000803343F004037A68136000BF0C37BD4633
:104640005DF8047B704700BF2820024080B485B02D
:1046500000AF78600B4BFB60FB681B6823F4813371
:1046600023F4FD737A68D200134343F4803343F09C
:104670000203FA68136000BF1437BD465DF8047B7F
:10468000704700BF2820024080B487B000AF786038
:10469000396000237B613AE13B681A6801217B693C
:1046A00001FA03F31340FB60FB68002B00F02C8140
:1046B0003B685B6803F00303012B05D03B685B6834
:1046C00003F00303022B30D17B689B683B617B695D
:1046D0005B00032202FA03F3DB433A6913403B61B8
:1046E0003B68DA687B695B0002FA03F33A691343BB
:1046F0003B617B683A699A607B685B683B61012239
:104700007B6902FA03F3DB433A6913403B613B6880
:104710005B681B0903F001027B6902FA03F33A6943
:1047200013433B617B683A695A603B685B6803F0FE
:104730000303032B09D13B685B6803F00303032BDE
:104740001BD13B689B68012B17D07B68DB683B6102
:104750007B695B00032202FA03F3DB433A691340EF
:104760003B613B689A687B695B0002FA03F33A6934
:1047700013433B617B683A69DA603B685B6803F02E
:104780000303022B23D17B69DA087B68083253F8D4
:1047900022303B617B6903F007039B000F2202FA82
:1047A00003F3DB433A6913403B613B681A697B6959
:1047B00003F007039B0002FA03F33A6913433B61DA
:1047C0007B69DA087B680832396943F822107B6814
:1047D0001B683B617B695B00032202FA03F3DB4346
:1047E0003A6913403B613B685B6803F003027B69F5
:1047F0005B0002FA03F33A6913433B617B683A6951
:104800001A603B685B6803F44033002B7CD0474A56
:104810007B699B08183352F823303B617B6903F0B6
:104820000303DB000F2202FA03F3DB433A69134070
:104830003B617B689A0A3E4B13407A6902F003029F
:10484000D20093403A6913433B6138497B699B0826
:1048500018333A6941F82320344B1B683B61FB68ED
:10486000DB433A6913403B613B685B6803F48013A8
:10487000002B03D03A69FB6813433B612B4A3B6929
:1048800013602A4B5B683B61FB68DB433A6913406A
:104890003B613B685B6803F40013002B03D03A696B
:1048A000FB6813433B61214A3B6953601F4BD3F8BC
:1048B00084303B61FB68DB433A6913403B613B68F2
:1048C0005B6803F40033002B03D03A69FB681343A1
:1048D0003B61164A3B69C2F88430144BD3F88030F0
:1048E0003B61FB68DB433A6913403B613B685B68B3
:1048F00003F48033002B03D03A69FB6813433B6118
:104900000A4A3B69C2F880307B6901337B613B68AE
:104910001A687B6922FA03F3002B7FF4BDAE00BF57
:1049200000BF1C37BD465DF8047B7047002002467F
:104930007F7F2F0080B487B000AF7860396000239C
:104940007B61A0E001227B6902FA03F33A6813401D
:104950003B613B69002B00F09380524A7B699B08C6
:10496000183352F82330FB607B6903F00303DB004C
:104970000F2202FA03F3FA681340FB607B689A0A7D
:10498000494B13407A6902F00302D2009340FA685F
:104990009A4236D1434BD3F880203B69DB434149EF
:1049A0001340C1F880303F4BD3F884203B69DB4390
:1049B0003C491340C1F884303A4B5A683B69DB43A9
:1049C000384913404B60374B1A683B69DB43354924
:1049D00013400B607B6903F00303DB000F2202FA34
:1049E00003F3FB602F4A7B699B08183352F82310AE
:1049F000FB68DA432B487B699B080A40183340F870
:104A000023207B681A687B695B00032101FA03F3AA
:104A10001A437B681A607B69DA087B68083253F8AE
:104A200022107B6903F007039B000F2202FA03F3B5
:104A3000DB437A69D20819407B68083243F82210B8
:104A40007B689A687B695B00032101FA03F3DB430F
:104A50001A407B689A607B685A6801217B6901FA79
:104A600003F3DB431A407B685A607B68DA687B6932
:104A70005B00032101FA03F3DB431A407B68DA6031
:104A80007B6901337B613A687B6922FA03F3002B6F
:104A90007FF458AF00BF00BF1C37BD465DF8047BF4
:104AA000704700BF002002467F7F2F0080B483B094
:104AB00000AF78600B467B8013467B707B78002BC1
:104AC00003D07A887B689A6102E07A887B689A6270
:104AD00000BF0C37BD465DF8047B704780B485B0DD
:104AE00000AF78600B467B807B685B69FB607A88EF
:104AF000FB6813401A04FB68D9437B880B401A43B8
:104B00007B689A6100BF1437BD465DF8047B70472F
:104B100080B584B000AF78607B68002B01D10123A1
:104B2000CDE07B685B68012B7B6893F84A30DBB291
:104B3000002B06D17B68002283F849207868FDF7B6
:104B400025F97B68022283F84A207B681B681A6972
:104B50007B681B6842F001021A617B681B684FF496
:104B600080725A607B681B687A68526B9A624FF455
:104B70008071786800F01AFB0346032B01D10323F0
:104B80009DE07B681B6810225A607B681B687A680E
:104B9000126A9A611021786800F008FB0346032B23
:104BA00001D103238BE07B681B68DB6A03F00203FF
:104BB000002B0ED17B681B68DB6A03F40033002BEB
:104BC00007D17B681B681A697B681B6822F00102A9
:104BD0001A617B681B68DB68FB607B685B68012B84
:104BE00004D07B689B6AB3F5000F03D1FB6823F008
:104BF0001E03FB607B685B694FF6FF72934205D032
:104C0000FB6823F4604323F0C003FB60FA682E4B7B
:104C10001340FB607B685A687B689B681A437B681B
:104C20005B6A1A437B689B6A1343FA681343FB6011
:104C30007B685B68002B07D17B68DA697B681B693E
:104C40001343FA681343FB607B685B68012B04D055
:104C50007B689B6AB3F5000F07D17B68DA687B68D5
:104C60001B691343FA681343FB607B685B694FF66B
:104C7000FF7293420AD07B685A697B689B691A432A
:104C80007B68DB691343FA681343FB607B681B682E
:104C9000FA68DA607B68D96A7B681A6B7B681B6884
:104CA0000A435A627B68012283F84B207B68012209
:104CB00083F84C207B68012283F84A2000231846A1
:104CC0001037BD4680BD00BFFEF139FF80B582B010
:104CD00000AF78607B68022283F84A207B685B68BB
:104CE000012B0CD07B689B6AB3F5000F07D17B6862
:104CF0001B68DA687B681B6822F46062DA607B6894
:104D00001B681A697B681B6842F001021A617B68A4
:104D10001B684FF080725A607B681B689A687B68DA
:104D20001B6842F4C9729A604FF08071786800F095
:104D30003DFA0346032B01D103230CE07B681B687B
:104D40001A697B681B6842F004021A617B680122C1
:104D500083F84A20002318460837BD4680BD80B539
:104D600082B000AF78607B68022283F84A207B68BB
:104D70001B68DB6A03F00203002B0ED17B681B6803
:104D8000DB6A03F40033002B07D17B681B681A69C8
:104D90007B681B6822F001021A617B681B681A6934
:104DA0007B681B6842F001021A617B681B684FF048
:104DB00080725A607B681B689A687B681B6822F463
:104DC000C9729A604FF08071786800F0EFF903467D
:104DD000032B01D103231AE07B681B68DB6A03F015
:104DE0000203002B0ED17B681B68DB6A03F40033DF
:104DF000002B07D17B681B681A697B681B6822F04F
:104E000001021A617B68012283F84A2000231846B8
:104E10000837BD4680BD80B582B000AF78607B6842
:104E20001B681B6803F00103012B20D17B681B6802
:104E30009B6803F00103012B19D17B681B680122D9
:104E40005A607B68012283F838207B681B68DB6A24
:104E500003F00103002B03D0786800F092F902E020
:104E6000786800F03EF97B68002283F838207B6880
:104E70001B681B6803F40073B3F5007F22D17B68C5
:104E80001B689B6803F40073B3F5007F1AD17B683D
:104E90001B684FF400725A607B68022283F8382046
:104EA0007B681B68DB6A03F48033002B03D07868CF
:104EB00000F067F902E0786800F013F97B680022DF
:104EC00083F838207B681B681B6803F48053B3F5B4
:104ED000805F17D17B681B689B6803F48053B3F530
:104EE000805F0FD17B681B684FF480525A607B68EB
:104EF000012283F83820786800F04DF97B680022A1
:104F000083F838207B681B681B6803F40053B3F5F3
:104F1000005F17D17B681B689B6803F40053B3F5EF
:104F2000005F0FD17B681B684FF400525A607B68AA
:104F3000022283F83820786800F02DF97B6800227F
:104F400083F838207B681B681B6803F00203022B80
:104F50000DD17B681B689B6803F00203022B06D10E
:104F60007B681B6802225A607868FBF745FD7B6806
:104F70001B681B6803F00403042B0DD17B681B68BE
:104F80009B6803F00403042B06D17B681B68042292
:104F90005A60786800F0AFF87B681B681B6803F004
:104FA0000803082B11D17B681B689B6803F008037A
:104FB000082B0AD17B681B6808225A607B68012293
:104FC00083F83820786800F0A0F87B681B681B68BD
:104FD00003F40023B3F5002F13D17B681B689B6893
:104FE00003F40023B3F5002F0BD17B681B684FF44B
:104FF00000225A607B68022283F83820786800F02B
:1050000084F87B681B681B6803F01003102B0DD11C
:105010007B681B689B6803F01003102B06D17B682C
:105020001B6810225A60786800F079F87B681B686A
:105030001B6803F02003202B0DD17B681B689B6845
:1050400003F02003202B06D17B681B6820225A60C6
:10505000786800F06EF87B681B681B6803F04003FB
:10506000402B0DD17B681B689B6803F04003402BED
:1050700006D17B681B6840225A60786800F063F8AC
:105080007B681B681B6803F08003802B0DD17B6855
:105090001B689B6803F08003802B06D17B681B682C
:1050A00080225A60786800F058F87B681B681B689B
:1050B00003F48073B3F5807F0FD17B681B689B6816
:1050C00003F48073B3F5807F07D17B681B684FF4CE
:1050D00080725A60786800F04AF800BF0837BD4611
:1050E00080BD80B483B000AF786000BF0C37BD4690
:1050F0005DF8047B704780B483B000AF786000BF78
:105100000C37BD465DF8047B704780B483B000AFB8
:10511000786000BF0C37BD465DF8047B704780B4F3
:1051200083B000AF786000BF0C37BD465DF8047BEC
:10513000704780B483B000AF786000BF0C37BD46C5
:105140005DF8047B704780B483B000AF786000BF27
:105150000C37BD465DF8047B704780B483B000AF68
:10516000786000BF0C37BD465DF8047B704780B4A3
:1051700083B000AF786000BF0C37BD465DF8047B9C
:10518000704780B483B000AF786000BF0C37BD4675
:105190005DF8047B704780B483B000AF786000BFD7
:1051A0000C37BD465DF8047B7047000080B485B0C5
:1051B00000AF786039600023FB73124B1B68124A02
:1051C000A2FB03239B0B4FF47A7202FB03F3BB6039
:1051D000BB68013BBB60BB68002B01D10323FB73A1
:1051E0007B681B681A683B6813403A689A4202D091
:1051F000BB68002BECD1FB7B18461437BD465DF82D
:10520000047B7047580000205917B7D180B400AF15
:10521000054B9B6A044A43F00103936200BFBD46FD
:105220005DF8047B704700BF0008024680B487B079
:1052300000AF78601B4B9A697B68DBB2DB431A4096
:105240007B681B0A174913438B61164BDA697B682D
:10525000DBB23B613B6993FAA3F3FB60FB687B61C4
:105260007B69002B01D1202303E07B69B3FA83F330
:10527000DBB25B00032101FA03F3DB431A407B68D6
:105280001B0C08491343CB61064B5A697B68DBB2A0
:10529000044913434B6100BF1C37BD465DF8047BD6
:1052A000704700BF0008024680B485B000AF786048
:1052B000294BDB6B03F48033BB60BA687B689A428E
:1052C00001D1002342E0244BDB6823F480322249E1
:1052D0007B681343CB60214B1B68322202FB03F334
:1052E0001F4AA2FB03239B0C0133FB6002E0FB6817
:1052F000013BFB60184BDB6803F40043002B02D139
:10530000FB68002BF3D1FB68002B01D103231DE0C8
:10531000124B1B68322202FB03F3114AA2FB032348
:105320009B0C0133FB6002E0FB68013BFB600A4B16
:10533000DB6B03F40043002B02D1FB68002BF3D19D
:10534000FB68002B01D1032300E00023184614372B
:10535000BD465DF8047B70470008024658000020F7
:1053600083DE1B4380B485B000AF7860204B1B68A0
:10537000322202FB03F31F4AA2FB03239B0C0133DF
:10538000FB607B68002B13D11B4B9B681A4A23F0F0
:105390000203936002E0FB68013BFB60164BDB6B92
:1053A00003F00203022B16D1FB68002BF3D112E0AD
:1053B000114B9B68104A43F00203936002E0FB68C4
:1053C000013BFB600C4BDB6B03F00203002B02D1B3
:1053D000FB68002BF3D1FB68002B01D1032300E015
:1053E000002318461437BD465DF8047B704700BFA4
:1053F0005800002083DE1B430008024680B582B0BF
:1054000000AF78607B68002B01D101230CE07B6842
:1054100002221A717868FCF7F7FC7B6800229A6018
:105420007B6801221A71002318460837BD4680BDEB
:1054300080B483B000AF786039607B681B79DBB2E1
:10544000012B0BD17B6802221A717B681B683A68BA
:105450001A607B6801221A71002303E07B68022234
:105460009A60012318460C37BD465DF8047B7047EF
:1054700080B483B000AF78607B681B681B6803F45E
:10548000E02318460C37BD465DF8047B70470000EA
:1054900080B58CB000AF78607B68002B02D101230F
:1054A00000F000BC8F4BDB6903F00C033B628D4BBB
:1054B0009B6A03F00303FB627B681B6803F0010334
:1054C000002B72D03B6A082B05D03B6A0C2B2AD1EB
:1054D000FB6A032B27D17B685B68002B01D101237A
:1054E000E0E33B6A082B5FD17E4B1B6823F48812F4
:1054F0007B689B6813437B4A43F480331360794B8A
:105500001B681B0D03F00103774A22FA03F3774A65
:105510001360774B1B681846FDF774FA0346002B9F
:1055200042D00123BEE37B685B68002B1FD06D4B2C
:105530001B6823F488127B6859687B689B680B435F
:10554000684913430B60FDF7EFFAF86108E0FDF7D7
:10555000EBFA0246FB69D31A642B01D90323A1E3BA
:10556000604B1B6803F40033002BF0D01DE05D4B53
:105570001B6823F488127B685B685A4913430B60ED
:10558000FDF7D2FAF86108E0FDF7CEFA0246FB69B2
:10559000D31A642B01D9032384E3524B1B6803F411
:1055A0000033002BF0D100E000BF7B681B6803F0E4
:1055B0000203002B5AD03B6A002B05D03B6A0C2B10
:1055C00013D1FB6A022B10D17B681B69002B01D120
:1055D000012367E3434B1B6923F4F8127B685B6983
:1055E0001B04404913430B6140E07B681B69002B9F
:1055F00023D03C4B1B683B4A43F480731360FDF798
:1056000093FAF86108E0FDF78FFA0246FB69D31AB6
:10561000022B01D9032345E3324B1B6803F480635B
:10562000002BF0D02F4B1B6923F4F8127B685B69C9
:105630001B042C4913430B6118E02A4B1B68294AB1
:1056400023F480731360FDF76FFAF86108E0FDF74B
:105650006BFA0246FB69D31A022B01D9032321E31B
:10566000204B1B6803F48063002BF0D17B681B6820
:1056700003F00803002B00F0F880002387F82730A0
:10568000184BD3F8943003F00403002B11D1154BC1
:10569000D3F89430134A43F00403C2F89430114B0A
:1056A000D3F8943003F004033B613B69012387F88E
:1056B0002730104B9B6A03F00103002B22D10D4BC6
:1056C0009B6A0C4A43F001039362FDF72DFAF861DF
:1056D00012E0FDF729FA0246FB69D31A022B0BD917
:1056E0000323DFE2000C02460048E80158000020D6
:1056F0005C00002000080246A84B9B6A03F00103EF
:10570000002BE6D0A64BD3F8F030BB624FF080639D
:10571000BB61BB6943F00053BB617B689B69002B95
:1057200079D07B689B6903F08063002B30D07B6865
:10573000DA69BB6A03F080539A4220D0BB6A03F057
:105740000063002B1BD0BB6A23F08063BB62944ACA
:10575000BB6AC2F8F030FDF7E7F9F86108E0FDF741
:10576000E3F90246FB69D31A142B01D9032399E20A
:105770008B4BD3F8F03003F00063002BEFD1BB6A02
:1057800023F08053BB627B68DB69BA6A1343BB6258
:105790007B689B69BA6A1343BB62814ABB6AC2F8E1
:1057A000F030FDF7C1F9F86108E0FDF7BDF90246F8
:1057B000FB69D31A142B01D9032373E2784BD3F876
:1057C000F0207B689B695B001340002BEDD07B6869
:1057D0009B69BA695340BB61BB69DB43BA6A13403A
:1057E000BB626F4ABB6AC2F8F030FDF79DF9F86101
:1057F00008E0FDF799F90246FB69D31A142B01D989
:1058000003234FE2664BD3F8F020BB695B001340E3
:10581000002BEED11DE0BB69DB43BA6A1340BB62CB
:105820005F4ABB6AC2F8F030FDF77EF9F86108E024
:10583000FDF77AF90246FB69D31A142B01D9032329
:1058400030E2574BD3F8F020BB695B001340002BCC
:10585000EED197F82730012B07D1514BD3F8943074
:105860004F4A23F00403C2F894307B681B6803F0AE
:105870000403002B00F0E280002387F82630484B19
:10588000D3F8943003F00403002B11D1444BD3F828
:105890009430434A43F00403C2F89430404BD3F8A9
:1058A000943003F00403FB60FB68012387F8263083
:1058B0003A4B9B6A03F00103002B18D1374B9B6ACC
:1058C000364A43F001039362FDF72EF9F86108E0D0
:1058D000FDF72AF90246FB69D31A022B01D90323EB
:1058E000E0E12E4B9B6A03F00103002BF0D07B68B4
:1058F000DB68002B56D02A4BD3F8F03023F080031E
:10590000BB627B68DB68BA6A1343BB62244ABB6A2A
:10591000C2F8F030FDF708F9F8610AE0FDF704F984
:105920000246FB69D31A41F28832934201D903231C
:10593000B8E11B4BD3F8F03003F00203002BEDD09D
:105940007B68DB6803F08003002B1ED00AE0FDF7C4
:10595000EBF80246FB69D31A41F28832934201D92F
:1059600003239FE10E4BD3F8F03003F40063002BC8
:10597000EDD057E0FDF7D8F80246FB69D31A41F2A3
:105980008832934201D903238CE1054BD3F8F030E0
:1059900003F40063002BEDD144E000BF0008024691
:1059A000000C02468A4BD3F8F030894A23F0810379
:1059B000C2F8F030864BD3F8F030854A23F0040368
:1059C000C2F8F030FDF7B0F8F8610AE0FDF7ACF886
:1059D0000246FB69D31A41F28832934201D903236C
:1059E00060E17B4BD3F8F03003F00203002BEDD1E4
:1059F000774BD3F8F03003F08003002B12D00AE08D
:105A0000FDF792F80246FB69D31A41F288329342BD
:105A100001D9032346E16E4BD3F8F03003F4006361
:105A2000002BEDD197F82630012B07D1684BD3F826
:105A30009430674A23F00403C2F894307B681B6AF1
:105A4000002B00F02E813B6A0C2B00F0BA807B68A3
:105A50001B6A022B40F093805D4B1B6823F0807320
:105A6000BB625B4ABB6A1360FDF75EF8F861584B96
:105A70001B68BB62FDF758F80246FB69D31A022B7C
:105A800001D903230EE1BB6A03F00073002BEED1B2
:105A90007B685B6A032B08D1BB6A1B0D03F0010313
:105AA0004C4A22FA03F3FB6201E04B4BFB627B683A
:105AB0009B6AFA6AB2FBF3F3FB62FB6A474A9342C2
:105AC00002D90C23FB6201E00023FB62404B9B6A7E
:105AD0007B617B6923F4E36323F007037B617B68CD
