:020000040800F2
:1000000000000220AD760108BB530008C35300086E
:10001000CB530008D3530008DB5300082F5C0008C3
:10002000000000000000000000000000E353000892
:10003000F153000800000000FF5300080D540008B1
:100040002F5C00082F5C0008195400082F5C000882
:100050002F5C00082F5C00082F5C00082F5C000854
:100060002F5C0008315400082F5C00082F5C00084A
:100070002F5C00082F5C00082F5C00082F5C000834
:100080002F5C00082F5C00082F5C00082F5C000824
:100090002F5C00082F5C00082F5C00082F5C000814
:1000A0002F5C00082F5C00082F5C00082F5C000804
:1000B0002F5C00086D540008815400082F5C000874
:1000C00095540008A95400082F5C00082F5C000814
:1000D0002F5C0008BD540008D15400082F5C0008B4
:1000E0002F5C00082F5C00082F5C00082F5C0008C4
:1000F0002F5C00082F5C0008E55400082F5C000806
:100100002F5C0008F95400082F5C00080D5500080A
:100110002F5C0008315500082F5C00082F5C000898
:100120002F5C00082F5C00082F5C00082F5C000883
:100130002F5C00087D5500082F5C0008455500081D
:100140002F5C00082F5C0008595500082F5C000840
:100150002F5C00082F5C00082F5C00082F5C000853
:1001600010B5054C237833B9044B13B10448AFF3F1
:1001700000800123237010BD9006002000000000C5
:10018000A4A4030808B5034B1BB103490348AFF30C
:10019000008008BD0000000094060020A4A403080D
:1001A00010B488420DD98B1898420AD2811832B106
:1001B0009A1A13F8014D9A4201F8014DF9D110BC79
:1001C0007047002AFBD00A44431E11F8014B8A42B3
:1001D00003F8014FF9D110BC704770B4840746D0C2
:1001E0004C1E002941D0D5B2034602E0611EE4B3A3
:1001F0000C4603F8015B9907F8D1032C2ED9D5B230
:1002000045EA05250F2C45EA054519D9264603F18F
:100210001001103E0F2E41F8105C41F80C5C41F8C3
:10022000085C41F8045C01F11001F2D8A4F110015E
:1002300021F00F0104F00F041031032C0B440DD9F1
:100240001E4621460439032946F8045BFAD8211FCB
:1002500021F0030104310B4404F003042CB1D2B2A9
:100260001C4403F8012BA342FBD170BC70470C4621
:100270000346C2E753B94AB9002908BF00281CBF8A
:100280004FF0FF314FF0FF3000F0B0B9ADF1080C86
:100290006DE904CE00F006F8DDF804E0DDE90223A4
:1002A00004B070472DE9F04F099D884604468E46FC
:1002B000002B4AD18A4217465FD9B2FA82F64EB174
:1002C000C6F1200301FA06FEB740B44020FA03F35A
:1002D00043EA0E0E4FEA17481FFA87FC230CBEFBB9
:1002E000F8F108FB11EE01FB0CF243EA0E439A42CF
:1002F00007D9FB1801F1FF3002D29A4200F2548173
:1003000001469B1AA2B2B3FBF8F008FB103300FBC6
:100310000CFC42EA034294450BD9BA1800F1FF33B2
:100320002CBF01240024944502D9002C00F03F8109
:10033000184640EA0140A2EB0C0200211DB1F24038
:100340000023C5E90023BDE8F08F8B4205D90DB12C
:10035000C5E9000100210846F5E7B3FA83F1002959
:100360004ED14345C0F01281824240F20F810846CF
:10037000002DE8D0C5E9004EE5E7002A00F0AC808A
:10038000B2FA82F6002E40F0BB808B1A4FEA124E72
:10039000BCB20121020C80B2B3FBFEFC0EFB1C338D
:1003A00042EA034304FB0CF29A420ED9FB180CF10B
:1003B000FF382CBF4FF001094FF000099A4203D9D2
:1003C000B9F1000F00F0EC80C4469B1AB3FBFEF8B5
:1003D0000EFB183304FB08F440EA034294420BD9A5
:1003E000BA1808F1FF332CBF01200020944202D933
:1003F000002800F0D1809846121B48EA0C409DE787
:10040000C1F120068B4008FA01F400FA01F922FA42
:1004100006F728FA06F88A401F4320FA06F3380C3C
:1004200023431FFA87FC1C0CB8FBF0FE00FB1E8860
:1004300044EA08440EFB0CF8A0450ED93C190EF115
:10044000FF3A2CBF4FF0010B4FF0000BA04503D932
:10045000BBF1000F00F0B880D646A4EB08041FFAE9
:1004600083F8B4FBF0F300FB134403FB0CFC48EAF5
:100470000444A4450ED93C1903F1FF302CBF4FF0C2
:1004800001084FF00008A44503D9B8F1000F00F0AF
:100490009F80034643EA0E40A4EB0C04A0FB02EC51
:1004A00064457346E04602D307D1F14505D2BEEB61
:1004B00002036CEB070C0138E0465DB1B9EB0302B7
:1004C00064EB080404FA06F622FA01F3CC401E435A
:1004D000C5E90064002136E7B1FBF2FC010C1446CB
:1004E00080B2964641EA08412026904640EA014300
:1004F0001046B1FBF2F1A3EB080341EA0C414BE7D4
:10050000B740C6F1200301FA06F221FA03F84FEAD8
:10051000174E20FA03F3BCB2B0401343020C190C7F
:1005200080B2B8FBFEF90EFB198841EA084109FBCD
:1005300004F8884551D9791809F1FF3C2CBF4FF0D8
:10054000010A4FF0000A884502D9BAF1000F31D0F4
:10055000A1EB0801B1FBFEF909FB04F80EFB191130
:100560009BB243EA0143434535D2FB1809F1FF3101
:100570002CBF4FF0010A4FF0000A4345BBD2BAF13D
:10058000000FB8D1A9F102013B44B4E7841A68EB2B
:10059000030201209646EBE63A44A8F102082BE755
:1005A000ACF1020C3B4410E702393B44A9E63A4463
:1005B0000238BEE6A7EB0808A9F1020C4144B1FBE2
:1005C000FEF909FB04F8C9E7AEF1020E3C4444E72A
:1005D000023B3C445EE749468DE7A1EB0801CC466F
:1005E000B1FBFEF909FB04F8B8E700BF704700BF94
:1005F00080B485B000AF78607B6801331B78FB81E5
:10060000B7F90E301B021AB27B681B781BB213437A
:100610001BB2FB81FB8918461437BD465DF8047B8D
:10062000704780B485B000AF78607B6803331B7877
:10063000FB60FB681B027A68023212781343FB608E
:10064000FB681B027A68013212781343FB60FB6877
:100650001B027A6812781343FB60FB681846143754
:10066000BD465DF8047B704780B483B000AF78600E
:100670000B467B807B685A1C7A607A88D2B21A70EB
:100680007B881B0A7B807B685A1C7A607A88D2B28E
:100690001A7000BF0C37BD465DF8047B704780B40C
:1006A00083B000AF786039607B685A1C7A603A6822
:1006B000D2B21A703B681B0A3B607B685A1C7A6096
:1006C0003A68D2B21A703B681B0A3B607B685A1CBE
:1006D0007A603A68D2B21A703B681B0A3B607B684A
:1006E0005A1C7A603A68D2B21A7000BF0C37BD4605
:1006F0005DF8047B704780B483B000AF0346FB71A4
:100700008122FB7993420FD39F22FB79934201D838
:1007100001230AE0E022FB79934205D3FC22FB7916
:10072000934201D8012300E0002318460C37BD4650
:100730005DF8047B704780B483B000AF0346FB7163
:100740004022FB79934219D37E22FB79934201D850
:10075000012314E08022FB79934205D3FC22FB792C
:10076000934201D801230AE00022FB79934205D38A
:100770000022FB79934201D8012300E000231846B0
:100780000C37BD465DF8047B704780B586B000AF7E
:1007900078607B681B687B617B695A1C7A611B7877
:1007A0007B827B8ADBB21846FFF7A5FF0346002B4E
:1007B00015D07B695A1C7A611B787B747B7C184648
:1007C000FFF7B9FF0346002B02D14FF0FF331DE0C6
:1007D0007B8A1B029AB27B7C9BB213447B827B8A0E
:1007E000002B0DD07B8A4FF46971184602F002FB92
:1007F00003467B827B8A002B02D14FF0FF3305E05A
:100800007B8AFB607B687A691A60FB681846183738
:10081000BD4680BD80B584B000AF78600023FB7317
:100820007B681B79002B2CD07B6858787B6803F1A0
:1008300034017B681A6A012305F04EF90346002B48
:100840001DD17B6800221A717B681A6A7B689B6ADB
:10085000D21A7B68DB699A4213D27B68DB78022B61
:100860000FD17B6858787B6803F134017B681A6A82
:100870007B68DB691A44012305F02EF901E00123AE
:10088000FB73FB7B18461037BD4680BD80B584B036
:1008900000AF786039600023FB737B681B6A3A689D
:1008A0009A421BD07868FFF7B5FF0346FB73FB7BCA
:1008B000002B13D17B6858787B6803F13401012346
:1008C0003A6805F04DF90346002B04D04FF0FF3392
:1008D0003B600123FB737B683A681A62FB7B184616
:1008E0001037BD4680BD000080B584B000AF786091
:1008F0007868FFF78FFF0346FB73FB7B002B57D114
:100900007B685B79012B47D17B6800225A717B6839
:100910001B78032B40D17B6834334FF400720021E5
:10092000184639F01DF97B68343324491846FFF71F
:10093000B6FE7B68343303F5F27321491846FFF79E
:10094000AEFE7B68343303F5F4727B685B6919464D
:100950001046FFF7A4FE7B68343303F5F6727B681C
:100960001B6919461046FFF79AFE7B68343303F57E
:10097000FE7314491846FFF792FE7B6858787B682F
:1009800003F134017B685B6A5A1C7B681A627B68DE
:100990001A6A012305F0A0F87B685B780022002129
:1009A000184605F021F90346002B01D00123FB7303
:1009B000FB7B18461037BD4680BD00BF52526141D7
:1009C00072724161000055AA80B483B000AF7860B4
:1009D00039603B68023B3B607B689B69023B3A683D
:1009E0009A4201D3002308E07B681A6B7B685B891D
:1009F00019463B6801FB03F3134418460C37BD4608
:100A00005DF8047B704780B586B000AF78603960D0
:100A10007B681B683B613B68012B04D93B699B6980
:100A20003A689A4202D301237B618EE04FF0FF3394
:100A30007B613B691B78032B61D0032B7BDC012B93
:100A400002D0022B41D076E03B68FB60FB685B087C
:100A5000FA681344FB603B699A6AFB685B0A1344BB
:100A600019463869FFF712FF0346002B66D1FB6871
:100A70005A1CFA60C3F308033A69134493F83430FC
:100A8000BB603B699A6AFB685B0A13441946386984
:100A9000FFF7FCFE0346002B52D1FB68C3F30803AB
:100AA0003A69134493F834301B02BA681343BB60AD
:100AB0003B6803F00103002B02D0BB681B0902E076
:100AC000BB68C3F30B037B613FE03B699A6A3B68F9
:100AD0001B0A134419463869FFF7D8FE0346002B5A
:100AE00030D13B6903F134023B685B0003F4FF73D0
:100AF00013441846FFF77CFD03467B6125E03B6904
:100B00009A6A3B68DB09134419463869FFF7BEFE51
:100B10000346002B18D13B6903F134023B689B006C
:100B200003F4FE7313441846FFF77BFD034623F0DE
:100B300070437B6109E001237B6106E000BF04E0B4
:100B400000BF02E000BF00E000BF7B691846183715
:100B5000BD4680BD90B589B000AFF860B9607A60DD
:100B60000223FB77BB68012B40F2D980FB689B69AD
:100B7000BA689A4280F0D380FB681B78032B00F0A0
:100B80009680032B00F3CB80012B02D0022B6ED07A
:100B9000C5E0BB68BB61BB695B08BA691344BB6154
:100BA000FB689A6ABB695B0A13441946F868FFF749
:100BB0006DFE0346FB77FB7F002B40F0A980FB68AE
:100BC00003F13402BB69591CB961C3F30803134430
:100BD0007B61BB6803F00103002B0DD07B691B78A0
:100BE0005BB203F00F035AB27B685BB21B015BB2CE
:100BF00013435BB2DBB201E07B68DBB27A6913704E
:100C0000FB6801221A71FB689A6ABB695B0A13448C
:100C10001946F868FFF73AFE0346FB77FB7F002B87
:100C200078D1FB6803F13402BB69C3F308031344B2
:100C30007B61BB6803F00103002B03D07B681B09B9
:100C4000DBB20EE07B691B785BB223F00F035AB274
:100C50007B681B0A5BB203F00F035BB213435BB20A
:100C6000DBB27A691370FB6801221A7157E0FB68E6
:100C70009A6ABB681B0A13441946F868FFF706FE18
:100C80000346FB77FB7F002B46D1FB6803F1340260
:100C9000BB685B0003F4FF7313447A6892B2114699
:100CA0001846FFF7E1FCFB6801221A7137E0FB6888
:100CB0009A6ABB68DB0913441946F868FFF7E6FD3A
:100CC0000346FB77FB7F002B28D17B6823F0704421
:100CD000FB6803F13402BB689B0003F4FE7313440A
:100CE0001846FFF79EFC034603F0704323437B60E6
:100CF000FB6803F13402BB689B0003F4FE731344EA
:100D000079681846FFF7CBFCFB6801221A7106E0F0
:100D100000BF04E000BF02E000BF00E000BFFB7FB7
:100D200018462437BD4690BD80B588B000AFF86046
:100D3000B9607A600023FB77FB681B68BB61BB6806
:100D4000012B04D9BB699B69BA689A4201D302237B
:100D50004BE07B68002B0CD04FF0FF327968B8690C
:100D6000FFF7F8FE0346FB77FB7F002B01D0FB7FEC
:100D70003BE0B968F868FFF746FE78617B69002BB5
:100D800031D07B69012B01D102232EE07B69B3F1C5
:100D9000FF3F01D1012328E00022B968B869FFF7BD
:100DA000D9FE0346FB77FB7F002B01D0FB7F1CE0C5
:100DB000BB695A69BB699B69023B9A420BD2BB690A
:100DC0005B695A1CBB695A61BB695B7943F00103DB
:100DD000DAB2BB695A717B69BB60BB699B69BA684F
:100DE0009A42C6D300E000BF002318462037BD4614
:100DF00080BD80B588B000AF786039607B681B68C3
:100E00003B613B68002B0DD13B691B69BB61BB6932
:100E1000002B04D03B699B69BA699A421BD301231A
:100E2000BB6118E039687868FFF7EDFDF860FB6892
:100E3000012B01D80123ADE0FB68B3F1FF3F01D1E5
:100E4000FB68A7E03B699B69FA689A4201D2FB689C
:100E5000A0E03B68BB613B695B69002B01D10023CB
:100E600098E00023FB61BA693B689A4229D1BB69CB
:100E70000133FB613B699B69FA699A4201D3022302
:100E8000FB61F9697868FFF7BEFDF860FB68012B2C
:100E900003D0FB68B3F1FF3F01D1FB687AE0FB6848
:100EA000002B0ED03B691B69FB60FB68012B06D948
:100EB0003B699B69FA689A4201D2FB68BB610023D7
:100EC000FB61FB69002B29D1BB69FB61FB69013325
:100ED000FB613B699B69FA699A4207D30223FB6174
:100EE000FA69BB699A4201D9002353E0F96978682D
:100EF000FFF789FDF860FB68002B0ED0FB68012B23
:100F000003D0FB68B3F1FF3F01D1FB6842E0FA690F
:100F1000BB699A42DAD100233CE000BF4FF0FF32B8
:100F2000F9693869FFF716FE0346FB75FB7D002B58
:100F300009D13B68002B06D0FA6939683869FFF798
:100F400009FE0346FB75FB7D002B1AD13B69FA694C
:100F50001A613B695B69002B1BD03B695A693B698D
:100F60009B69023B9A4214D83B695B695A1E3B69F4
:100F70005A613B695B7943F00103DAB23B695A710C
:100F800007E0FB7D012B02D14FF0FF3300E001238E
:100F9000FB61FB6918462037BD4680BD80B586B031
:100FA00000AF786039607868FFF734FC0346002BA7
:100FB00001D0012336E039687868FFF705FD386114
:100FC0007B683A691A627B6834334FF400720021FF
:100FD000184638F0C5FD7B683433FB600123BB60E5
:100FE00000237B6103E07A69BB6813447B617B6803
:100FF0005B891A467B6993420BD27B6858783A69C1
:101000007B691A44BB68F96804F066FD0346002B4F
:10101000E9D07B685B891A467B69934214BF012340
:101020000023DBB218461837BD4680BD80B586B0B8
:1010300000AF786039607B681B683B613B68B3F543
:10104000001F04D23B6803F01F03002B01D00223D2
:1010500063E07B683A681A617B689B687B617B69A7
:10106000002B06D13B691B78022B02D93B69DB6A56
:101070007B617B69002B0CD13B685B093A69128963
:10108000934201D3022348E03B69DA6A7B689A61A4
:1010900029E03B695B895B02FB6019E07B68796949
:1010A0001846FFF7B0FC78617B69B3F1FF3F01D1CF
:1010B000012332E07B69012B04D93B699B697A6982
:1010C0009A4201D3022328E03A68FB68D31A3B60B6
:1010D0003A68FB689A42E1D279693869FFF774FC93
:1010E00002467B689A617B687A695A617B689B6972
:1010F000002B01D1022310E07B689A693B685B0AF0
:101100001A447B689A613B6903F134023B68C3F37C
:1011100008031A447B68DA61002318461837BD4675
:1011200080BD80B586B000AF786039607B681B6891
:101130003B617B681B692033FB60FB68B3F5001FD4
:1011400002D37B6800229A617B689B69002B01D1E6
:10115000042378E0FB68C3F30803002B66D17B68A7
:101160009B695A1C7B689A617B685B69002B0AD17A
:10117000FB685B093A691289934257D37B68002266
:101180009A6104235FE0FB685B0A3A695289013A7D
:101190001340002B4AD17A687B685B691946104678
:1011A000FFF731FC78617B69012B01D802234AE00B
:1011B0007B69B3F1FF3F01D1012344E03B699B69A7
:1011C0007A699A4228D33B68002B04D17B680022BD
:1011D0009A61042337E07A687B685B691946104698
:1011E000FFF707FE78617B69002B01D107232AE016
:1011F0007B69012B01D1022325E07B69B3F1FF3F1D
:1012000001D101231FE079693869FFF7C7FE034662
:10121000002B01D0012316E07B687A695A61796955
:101220003869FFF7D1FB02467B689A617B68FA68F0
:101230001A613B6903F13402FB68C3F308031A44E3
:101240007B68DA61002318461837BD4680BD80B53B
:1012500086B000AF786039607B681B68FB60002156
:101260007868FFF7E3FE0346FB75FB7D002B2BD16F
:1012700000233B617B689B691946F868FFF706FB12
:101280000346FB75FB7D002B1DD17B68DB691B785A
:10129000E52B04D07B68DB691B78002B07D13B6909
:1012A00001333B613A693B689A4202D10CE000236A
:1012B0003B6101217868FFF734FF0346FB75FB7D36
:1012C000002BD7D000E000BFFB7D042B01D107230A
:1012D000FB75FB7D18461837BD4680BD80B584B0D0
:1012E00000AF786039603B681A331846FFF780F921
:1012F0000346FB607B681B78032B09D13B681433E2
:101300001846FFF775F903461B04FA681343FB60A0
:10131000FB6818461037BD4680BD80B584B000AF6D
:10132000F860B9607A60BB681A337A6892B2114685
:101330001846FFF799F9FB681B78032B09D1BB68A6
:1013400003F114027B681B0C9BB219461046FFF791
:101350008BF900BF1037BD4680BD000090B587B047
:1013600000AF786039603B681A331846FFF740F9E0
:101370000346002B01D0002359E03B681B7803F0A3
:101380003F03013B1A4613465B0013449B00134482
:101390007B610123FB8100233B6132E0264A3B69EC
:1013A00013441B781A463B6813441846FFF720F98C
:1013B0000346BB81FB89002B19D07B69FF2B11D819
:1013C000BB89184601F06EFD04467B695A1C7A61A0
:1013D0005B007A6813441B88184601F063FD0346DE
:1013E0009C4201D0002322E0BB89FB8106E0BB893F
:1013F0004FF6FF72934201D0002318E03B6901339E
:101400003B613B690C2BC9D93B681B7803F0400357
:10141000002B0BD0FB89002B08D07B695B007A681E
:1014200013441B88002B01D0002300E00123184641
:101430001C37BD4690BD00BFE8C4030880B588B026
:1014400000AFF860B96011461A460B46FB711346AF
:10145000BB71BB680D33BA791A70BB680B330F22AE
:101460001A70BB680C3300221A70BB681A33002153
:101470001846FFF7F9F8FB79013B1A4613465B0063
:1014800013449B001344FB610023FB820023BB61D8
:10149000FB8A4FF6FF72934207D0FB695A1CFA6130
:1014A0005B00FA6813441B88FB82174ABB6913442C
:1014B0001B781A46BB681344FA8A11461846FFF790
:1014C000D3F8FB8A002B02D14FF6FF73FB82BB6976
:1014D0000133BB61BB690C2BDAD9FB8A4FF6FF7273
:1014E000934206D0FB695B00FA6813441B88002B0B
:1014F00003D1FB7943F04003FB71BB68FA791A70A2
:1015000000BF2037BD4680BDE8C4030880B58CB05D
:1015100000AFF860B9607A607B800B22B968F86828
:1015200038F063FB7B88052B2BD97B88FB6122E09D
:101530007B689A1C7A601B887B840023BB6217E05F
:10154000FB695A007B8C03F001031344FB617B8C25
:101550005B087B84FB6903F48033002B05D0FB69B7
:1015600083F4883383F02103FB61BB6A0133BB62E0
:10157000BB6A0F2BE4D97B681B88002BD8D1FB6991
:101580007B800723BB627B88DBB203F00F03DBB2F7
:10159000303387F82F307B881B097B8097F82F30FA
:1015A000392B04D997F82F30073387F82F30BB6ACF
:1015B0005A1EBA6230333B4497F82F2003F81C2C94
:1015C000BB6A002B02D07B88002BDCD107F1140210
:1015D000BB6A13447E221A7000237B6214E0FA680F
:1015E0007B6A13441B781846FFF785F80346002BE7
:1015F00007D0BB6A013B7A6A9A4210D07B6A0133FA
:101600007B627B6A01337B627A6ABB6A9A4207D249
:10161000FA687B6A13441B78202BE0D100E000BFFE
:10162000BB6A072B07D8BB6A5A1CBA6230333B44EB
:1016300013F81C1C00E020217B6A5A1C7A62FA68AD
:1016400013440A461A707B6A072BE9D900BF00BF12
:101650003037BD4680BD80B485B000AF78600023D0
:10166000FB730B23BB60FB7BDAB25208DB01134335
:10167000DAB27B68591C79601B781344FB73BB6832
:10168000013BBB60BB68002BEDD1FB7B18461437D8
:10169000BD465DF8047B704780B586B000AF7860CA
:1016A0007B681B683B6100217868FFF7BFFC03463D
:1016B000FB75FB7D002B01D0FB7DA9E0FF233B7573
:1016C0003B7D7B757B684FF0FF32DA627B689B69FC
:1016D00019463869FFF7DAF80346FB75FB7D002BE6
:1016E00040F090807B68DB691B78BB75BB7D002B6D
:1016F00002D10423FB758AE07B68DB690B331B781E
:1017000003F03F03FB737B68FA7B9A71BB7DE52B8B
:1017100007D0FB7B03F00803002B09D0FB7B0F2BCA
:1017200006D0FF237B757B684FF0FF32DA625EE004
:10173000FB7B0F2B36D17B6893F82B3003F04003F3
:10174000002B54D1BB7D03F04003002B0DD0BB7D9B
:1017500023F04003BB75BB7D7B757B681A697B6892
:10176000DA627B68DB695B7B3B75BA7D7B7D9A4285
:1017700015D17B68DB690D331B783A7D9A420ED117
:101780003B69DA687B68DB6919461046FFF7E6FDBE
:101790000346002B03D07B7D013BDBB200E0FF233F
:1017A0007B7524E07B7D002B09D17B68DB691846C3
:1017B000FFF751FF03461A463B7D934224D07B68D6
:1017C00093F82B3003F00103002B0AD17B68D86912
:1017D0007B6820330B22194638F0B2F90346002B00
:1017E00014D0FF237B757B684FF0FF32DA62002153
:1017F0007868FFF796FC0346FB75FB7D002B3FF4F2
:1018000065AF04E000BF02E000BF00E000BFFB7D69
:1018100018461837BD4680BD80B58CB000AF7860E3
:101820007B681B68FB617B6893F82B3003F0A00397
:10183000002B01D00623E1E000237B6202E07B6AFB
:1018400001337B62FB69DA687B6A5B0013441B88A7
:10185000002BF4D17B6803F1200207F10C03106820
:101860005168926807C3FB7D03F00103002B33D05E
:101870007B68402283F82B200123BB6217E07B6842
:1018800003F12000FB69DA68BB6A9BB207F10C0127
:10189000FFF73CFE7868FFF7FFFE034687F82F301E
:1018A00097F82F30002B06D1BB6A0133BB62BB6AAD
:1018B000632BE4D900E000BFBB6A642B01D107238E
:1018C0009CE097F82F30042B02D097F82F3095E04A
:1018D000FA7D7B6883F82B20FB7D03F00203002B4D
:1018E00007D07B6A0C33474AA2FB03239B080133D2
:1018F00000E001233B62396A7868FFF7A8FC0346E1
:1019000087F82F3097F82F30002B48D13B6A013BE6
:101910003B623B6A002B42D07B681A693B6A5B01E1
:10192000D31A19467868FFF781FB034687F82F30F2
:1019300097F82F30002B32D17B6820331846FFF701
:101940008AFE0346FB767B689B691946F869FEF7B9
:101950009DFF034687F82F3097F82F30002B1DD1BD
:10196000FB69D8687B68D9693B6ADAB2FB7EFFF70E
:1019700065FDFB6901221A7100217868FFF7D1FB30
:10198000034687F82F3097F82F30002B07D13B6A9A
:10199000013B3B623B6A002BD5D100E000BF97F8CA
:1019A0002F30002B28D17B689B691946F869FEF718
:1019B0006DFF034687F82F3097F82F30002B1BD18F
:1019C0007B68DB6920220021184638F0C9F87B6863
:1019D000D8697B6820330B22194638F006F97B68FA
:1019E00093F82B207B68DB690C3302F01802D2B22B
:1019F0001A70FB6901221A7197F82F301846303798
:101A0000BD4680BD4FECC44E80B58AB000AF786053
:101A100039603B681B68BB607B681B68DB683B61A7
:101A200000237B6107F108031846FEF7AEFEF8605D
:101A3000FB68B3F1FF3F01D10623B5E1FB68B3F5C5
:101A4000803F09D3FB68190C7B695A1C7A615B00E3
:101A50003A6913448AB21A80FB68BB84BB8C1F2B83
:101A600020D9BB8C2F2B1DD0BB8C5C2B1AD0BB8CF0
:101A70007F2B09D8BB8C1946914838F079F803467A
:101A8000002B01D006238FE17B69FE2B01D90623B1
:101A90008AE17B695A1C7A615B003A691344BA8C0B
:101AA0001A80BFE7BB8C1F2B06D8042387F826308B
:101AB00014E0BB680133BB60BB681B782F2BF8D0E8
:101AC000BB681B785C2BF4D0002387F82630BB68FA
:101AD0001B781F2B02D8042387F82630BA683B688E
:101AE0001A6011E07B6903F10043013B5B003A6936
:101AF00013441B88BB84BB8C202B02D0BB8C2E2BA9
:101B000006D17B69013B7B617B69002BEAD100E058
:101B100000BF7B695B003A69134400221A807B692D
:101B2000002B01D106233FE10023BB6102E0BB692A
:101B30000133BB61BB695B003A6913441B88202BEE
:101B4000F5D0BB69002B06D1BB695B003A69134431
:101B50001B882E2B09D197F8263043F0030387F812
:101B6000263002E07B69013B7B617B69002B09D059
:101B70007B6903F10043013B5B003A6913441B8816
:101B80002E2BEFD17B6820330B222021184637F013
:101B9000E7FF002387F8273000233B620823FB611F
:101BA000BB695A1CBA615B003A6913441B88BB8449
:101BB000BB8C002B00F0AE80BB8C202B06D0BB8CE6
:101BC0002E2B0AD1BA697B699A4206D097F8263043
:101BD00043F0030387F826309BE03A6AFB699A4298
:101BE00003D2BA697B699A4223D1FB690B2B06D1D8
:101BF00097F8263043F0030387F826308DE0BA6962
:101C00007B699A4205D097F8263043F0030387F8A2
:101C10002630BA697B699A427ED87B69BB6108230A
:101C20003B620B23FB6197F827309B0087F8273036
:101C30006FE0BB8C7F2B11D997F8263043F002035D
:101C400087F82630BB8C184601F02CF903464FF478
:101C50006971184601F072F80346BB84BB8CFF2BF8
:101C60001AD9FB69013B3A6A9A4208D397F82630A1
:101C700043F0030387F82630FB693B6249E0BB8CE5
:101C80001B0A99B23B6A5A1C3A62C9B27A68134479
:101C90000A4683F8202032E0BB8C002B07D0BB8C97
:101CA0001946084837F064FF0346002B0CD05F2329
:101CB000BB8497F8263043F0030387F826301EE0F4
:101CC000BCA40308C8A40308BB8C402B08D9BB8C58
:101CD0005A2B05D897F8273043F0020387F82730AE
:101CE000BB8C602B0BD9BB8C7A2B08D897F827308C
:101CF00043F0010387F82730BB8C203BBB843B6A51
:101D00005A1C3A62BA8CD1B27A6813440A4683F8F4
:101D1000202045E700BF00E000BF7B6893F820303B
:101D2000E52B03D17B68052283F82020FB69082B73
:101D300004D197F827309B0087F8273097F8273091
:101D400003F00C030C2B05D097F8273003F00303A6
:101D5000032B05D197F8263043F0020387F826308D
:101D600097F8263003F00203002B17D197F827309D
:101D700003F00103002B05D097F8263043F0100341
:101D800087F8263097F8273003F00403002B05D09E
:101D900097F8263043F0080387F826307B6897F8D9
:101DA000262083F82B20002318462837BD4680BD07
:101DB00080B586B000AF786039607B681B683B6196
:101DC00002E03B6801333B603B681B782F2BF8D067
:101DD0003B681B785C2BF4D07B6800229A603B68E0
:101DE0001B781F2B0AD87B68802283F82B200021C8
:101DF0007868FFF71BF90346FB7543E03B4619463D
:101E00007868FFF701FE0346FB75FB7D002B34D19C
:101E10007B6893F82B30FB737868FFF73DFC034633
:101E2000FB75FB7D002B0AD0FB7D042B27D1FB7BB0
:101E300003F00403002B22D10523FB751FE0FB7B7D
:101E400003F00403002B1CD17B689B7903F0100383
:101E5000002B02D10523FB7514E03B6903F134022A
:101E60007B681B69C3F30803134419463869FFF7FD
:101E700035FA02467B689A60C0E700BF02E000BF07
:101E800000E000BFFB7D18461837BD4680BD80B41A
:101E900087B000AF78607B681B68FB60FB687B6184
:101EA000FB68002B02D14FF0FF332CE07B695A1CFA
:101EB0007A611B78FB72FB7A1F2B02D9FB7A3A2BD3
:101EC000F4D1FB7A3A2B1DD101233B61FB681B78CF
:101ED0002F2B0CD9FB681B78392B08D8FB680233F1
:101EE0007A699A4203D1FB681B78303B3B613B69BE
:101EF000002B02DD4FF0FF3305E07B687A691A6042
:101F00003B6900E0002318461C37BD465DF8047BA2
:101F10007047000080B584B000AF786039607B689E
:101F200000221A717B684FF0FF321A6239687868B4
:101F3000FEF7ACFC0346002B01D0042388E07B684D
:101F4000343303F5FF731846FEF752FB0346FB815B
:101F50007B6893F834307B737B7BEB2B05D07B7BEA
:101F6000E92B02D07B7BE82B6AD1FB894AF655220C
:101F700093420CD17B6834335233082236491846D9
:101F800037F0DEFD0346002B01D1002360E07B68C3
:101F900034330B331846FEF72BFB03467B817B68FB
:101FA00093F841307B737A897B89013B1340002B86
:101FB00046D17B89B3F5007F42D37B89B3F5007F9F
:101FC0003ED87B7B002B3BD07A7B7B7B013B134055
:101FD000002B35D17B6834330E331846FEF708FBEF
:101FE0000346002B2CD07B6893F84430013B012B37
:101FF00026D87B68343311331846FEF7F9FA0346C6
:10200000002B1DD07B68343313331846FEF7F0FAEB
:1020100003467F2B09D87B68343320331846FEF7FC
:1020200000FB0346B3F5803F0AD37B683433163395
:102030001846FEF7DDFA0346002B01D0002307E027
:10204000FB894AF65522934201D1022300E0032383
:1020500018461037BD4680BDD0A4030880B588B0AF
:1020600000AF7860396000217868FFF753FFB861EE
:10207000BB69022B07D0BB69022B02D83B68002B3F
:1020800001D1BB6945E00023FB6114E07B6803F1EB
:102090003402FB691B0103F5E37313441846FEF792
:1020A000C0FA0246FB699B0020333B4443F8182CDE
:1020B000FB690133FB61FB69032BE7D93B68002B0C
:1020C00002D03B68013B00E00023FB61FB699B0001
:1020D00020333B4453F8183C002B0BD0FB699B008A
:1020E00020333B4453F8183C19467868FFF712FF39
:1020F000034600E00323BB613B68002B08D1BB69AA
:10210000012B05D9FB690133FB61FB69032BDDD989
:10211000BB6918462037BD4680BD000080B590B031
:1021200000AFF860B9601346FB71BB6800221A600B
:10213000F868FFF7ACFEF862FB6A002B01DA0B23AC
:10214000DDE19D4AFB6A52F82330BB62BB6A002B7B
:1021500001D10C23D3E1BB68BA6A1A60FB7923F082
:102160000103FB71BB6A1B78002B1AD0BB6A5B783A
:10217000184603F048FD034687F8273097F82730C4
:1021800003F00103002B0CD1FB79002B07D097F84B
:10219000273003F00403002B01D00A23AFE1002312
:1021A000ADE1BB6A00221A70BB6A5B78184603F087
:1021B000D9FB034687F8273097F8273003F001034F
:1021C000002B01D003239AE1FB79002B07D097F86D
:1021D000273003F00403002B01D00A238FE10021F4
:1021E000B86AFFF73BFFF863FB6B042B01D10123B7
:1021F00085E1FB6B012B01D90D2380E1BB6A1B6AD2
:102200003B62BB6A34330B331846FEF7F1F90346E1
:10221000B3F5007F01D00D2371E1BB6A343316336F
:102220001846FEF7E5F903467B637B6B002B06D16E
:10223000BB6A343324331846FEF7F3F97863BB6A7C
:102240007A6BDA61BB6A93F84420BB6ADA70BB6AC6
:10225000DB78012B05D0BB6ADB78022B01D00D2384
:102260004DE1BB6ADB781A467B6B02FB03F37B63B1
:10227000BB6A93F841301A46BB6A5A81BB6A5B89D4
:10228000002B08D0BB6A5B891A46BB6A5B89013B9D
:102290001340002B01D00D2331E1BB6A34331133DD
:1022A0001846FEF7A5F903461A46BB6A1A81BB6AAF
:1022B0001B8903F00F039BB2002B01D00D231EE1FD
:1022C000BB6A343313331846FEF792F90346BB63F7
:1022D000BB6B002B06D1BB6A343320331846FEF7A4
:1022E000A0F9B863BB6A34330E331846FEF780F9A1
:1022F0000346FB83FB8B002B01D10D23FFE0FA8B00
:102300007B6B1344BA6A1289120992B21344BB61FF
:10231000BA6BBB699A4201D20D23F0E0BA6BBB697C
:10232000D31ABA6A5289B3FBF2F37B617B69002B43
:1023300001D10D23E3E00023FB637B691F4A934235
:1023400001D80323FB637B694FF6F572934201D8F2
:102350000223FB637B6940F6F572934201D80123A7
:10236000FB63FB6B002B01D10D23C8E07B699A1C3A
:10237000BB6A9A61BB6A3A6A5A62FA8B3B6A1A4430
:10238000BB6A9A623A6ABB691A44BB6A1A63FB6BFE
:10239000032B23D1BB6A34332A331846FEF728F9BE
:1023A0000346002B01D00D23A9E0BB6A1B89002B3B
:1023B00006D00D23A3E000BFAC060020F5FFFF0F01
:1023C000BB6A34332C331846FEF72BF90246BB6A3E
:1023D000DA62BB6A9B699B003B631EE0BB6A1B8998
:1023E000002B01D10D238AE0BB6A9A6A7B6B1A44E9
:1023F000BB6ADA62FB6B022B03D1BB6A9B695B0091
:102400000AE0BB6A9A6913465B0013445A08BB6A28
:102410009B6903F0010313443B63BB6ADA693B6BBE
:1024200003F2FF135B0A9A4201D20D2367E0BB6AF5
:102430004FF0FF325A61BB6A5A69BB6A1A61BB6AC4
:1024400080225A71FB6B032B47D1BB6A3433303384
:102450001846FEF7CDF80346012B3ED13B6A013307
:102460001946B86AFEF712FA0346002B35D1BB6A4B
:1024700000225A71BB6A34331846FEF7D2F803467D
:10248000214A934229D1BB6A343303F5F2731846CB
:10249000FEF7C7F803461D4A93421ED1BB6A343388
:1024A00003F5FE731846FEF7BCF80346184A93423C
:1024B00013D1BB6A343303F5F4731846FEF7B1F851
:1024C0000246BB6A5A61BB6A343303F5F673184699
:1024D000FEF7A7F80246BB6A1A61FB6BDAB2BB6A69
:1024E0001A700C4B1B8801339AB20A4B1A80094BA5
:1024F0001A88BB6ADA80BB6A074ADA60002318468A
:102500004037BD4680BD00BF525261417272416189
:10251000000055AAB0060020B406002080B584B0A3
:1025200000AF786039600923FB737B68002B1CD0F7
:102530007B681B68002B18D07B681B681B78002BFE
:1025400013D07B689A887B681B68DB889A420CD121
:102550007B681B685B78184603F055FB034603F065
:102560000103002B01D10023FB73FB7B002B02D165
:102570007B681B6800E000233A681360FB7B184609
:102580001037BD4680BD000080B588B000AFF86050
:10259000B9601346FB71BB683B6107F11003184635
:1025A000FFF775FCF861FB69002B01DA0B232EE0C5
:1025B000194AFB6952F82330BB61BB69002B07D075
:1025C000154AFB69002142F82310BB6900221A70EA
:1025D000FB68002B0BD0FB68FA69D2B25A70FB681B
:1025E00000221A70FA680C49FB6941F82320FB7934
:1025F000002B01D100230AE007F10C0107F10803C9
:1026000000221846FFF78AFD0346FB75FB7D18463E
:102610002037BD4680BD00BFAC06002080B59AB013
:1026200000AFF860B9601346FB71FB68002B01D165
:10263000092377E1FB7903F03F03FB71FA7907F196
:10264000140107F108031846FFF768FD034687F8F1
:10265000673097F86730002B40F05B817A69FB6840
:102660001A607B69BB61BA6807F118031146184606
:10267000FFF79EFB034687F8673097F86730002B1B
:1026800007D197F843305BB2002B02DA062387F8B4
:102690006730FB7903F01C03002B78D097F8673084
:1026A000002B10D097F86730042B07D107F11803DF
:1026B0001846FFF7B1F8034687F86730FB7943F017
:1026C0000803FB7110E0FB7903F00403002B03D037
:1026D000082387F8673007E0BB7F03F01103002B66
:1026E00002D0072387F8673097F86730002B68D14E
:1026F000FB7903F00803002B63D003F090FAB86570
:102700007B6B0E33B96D1846FDF7C9FF7B6B163333
:10271000B96D1846FDF7C3FF7B697A6B1146184601
:10272000FEF7DCFD78657B6B0B3320221A707B692A
:10273000796B00221846FEF7F0FD7B6B1C330021FD
:102740001846FDF7ACFF7B6901221A717B6D002BE7
:1027500037D07B691B6A3B6507F118030022796D4E
:102760001846FEF7E1FA034687F8673097F86730B6
:10277000002B26D17B69396D1846FEF787F8034692
:1027800087F867307B697A6D013A1A6119E097F82A
:102790006730002B15D1BB7F03F01003002B03D053
:1027A000042387F867300CE0FB7903F00203002B69
:1027B00007D0BB7F03F00103002B02D0072387F86B
:1027C000673097F86730002B0FD1FB7903F00803CF
:1027D000002B03D0FB7943F04003FB717B691A6A3D
:1027E000FB681A627A6BFB685A6297F86730002BB5
:1027F00040F08F807B697A6B11461846FEF76EFDBC
:102800000246FB689A607B6B1C331846FDF709FF94
:102810000246FB68DA607B69DA88FB689A80FB68AD
:10282000FA791A74FB6800225A74FB680022DA6194
:10283000FB6800225A61FB6828334FF400720021C4
:10284000184637F08DF9FB7903F02003002B60D098
:10285000FB68DB68002B5CD0FB68DA68FB685A61B8
:102860007B695B895B02FB64FB689B683B66FB687A
:10287000DB68FB6516E0FB68396E1846FEF7C3F8A7
:1028800038663B6E012B02D8022387F867303B6E17
:10289000B3F1FF3F02D1012387F86730FA6DFB6C7B
:1028A000D31AFB6597F86730002B03D1FA6DFB6CE8
:1028B0009A42E0D8FB683A6E9A6197F86730002B2D
:1028C00027D1FB6DC3F30803002B22D07B69396E3F
:1028D0001846FEF779F8B864BB6C002B03D10223CD
:1028E00087F8673015E0FB6D5A0ABB6C1A44FB6829
:1028F000DA617B695878FB6803F12801FB68DA69C3
:10290000012303F02DF90346002B02D0012387F8A1
:10291000673097F86730002B02D0FB6800221A60FE
:1029200097F8673018466837BD4680BD80B58CB0D3
:1029300000AFF860B9607A603B60BB68FB613B68E0
:1029400000221A60FB6807F1100211461846FFF7D3
:10295000E5FD034687F82F3097F82F30002B07D17D
:10296000FB685B7C87F82F3097F82F30002B02D064
:1029700097F82F303FE1FB681B7C03F00203002B2C
:1029800001D1072337E1FB685A697B681A44FB6869
:102990005B699A4280F02181FB685B69DB437B6065
:1029A0001BE1FB685B69C3F30803002B40F0D78091
:1029B000FB685B695B0A3A695289013A1340BB6163
:1029C000BB69002B37D1FB685B69002B0CD1FB681E
:1029D0009B68BB62BB6A002B0ED1FB6800211846C6
:1029E000FEF707FAB86207E0FA68FB689B691946C8
:1029F0001046FEF7FEF9B862BB6A002B00F0F280C9
:102A0000BB6A012B04D1FB6802225A740223F2E054
:102A1000BB6AB3F1FF3F04D1FB6801225A74012362
:102A2000E9E0FB68BA6A9A61FB689B68002B02D1F7
:102A3000FB68BA6A9A60FB681B7C5BB2002B18DAF1
:102A40003B695878FB6803F12801FB68DA690123C8
:102A500003F042F80346002B04D0FB6801225A74AD
:102A60000123C8E0FB681B7C03F07F03DAB2FB683C
:102A70001A743A69FB689B6919461046FDF7A4FF72
:102A800078617B69002B04D1FB6802225A7402230F
:102A9000B1E07A69BB6913447B617B685B0A3B6286
:102AA0003B6A002B3CD0BA693B6A13443A695289AD
:102AB000934205D93B695B891A46BB69D31A3B62CD
:102AC0003B6958783B6A7A69F96903F005F803466F
:102AD000002B04D0FB6801225A7401238BE0FB68B1
:102AE000DA697B69D31A3A6A9A4215D9FB6803F10D
:102AF0002800FB68DA697B69D31A5B02FA69134420
:102B00004FF40072194637F070F8FB681B7C03F035
:102B10007F03DAB2FB681A743B6A5B027B623FE0B8
:102B2000FB68DB697A699A4216D0FB685A69FB68D0
:102B3000DB689A4210D23B695878FB6803F12801A0
:102B400001237A6903F00CF80346002B04D0FB68DC
:102B500001225A7401234EE0FB687A69DA61FB684E
:102B60005B69C3F30803C3F500737B627A6A7B6811
:102B70009A4201D97B687B62FB6803F12802FB68FB
:102B80005B69C3F3080313447A6AF969184637F09E
:102B90002CF8FB681B7C63F07F03DAB2FB681A74C5
:102BA0007A687B6AD31A7B603B681A687B6A1A442E
:102BB0003B681A60FA697B6A1344FB61FB685A69D7
:102BC0007B6A1A44FB685A61FB68DA68FB685B69D8
:102BD0009A4238BF1A46FB68DA607B68002B7FF4A4
:102BE000E0AE00E000BFFB681B7C43F04003DAB2BC
:102BF000FB681A74002318463037BD4680BD90B577
:102C000087B000AF78607B6807F10C021146184668
:102C1000FFF784FC0346FB75FB7D002B69D17B68C5
:102C20001B7C03F04003002B63D07B681B7C5BB2F2
:102C3000002B15DAFB6858787B6803F128017B6864
:102C4000DA69012302F048FF0346002B01D001237B
:102C500050E07B681B7C03F07F03DAB27B681A7458
:102C6000FA687B681B6A19461046FDF70FFE03469B
:102C7000FB75FB7D002B3CD17B685B6A3B613B694C
:102C80000B331A783B690B3342F02002D2B21A7030
:102C90007B6818687B689B681A463969FEF73DFBBC
:102CA0003B6903F11C027B68DB6819461046FDF79F
:102CB000F6FC3B6903F1160402F0B1FF0346194626
:102CC0002046FDF7ECFC3B69123300211846FDF766
:102CD000CBFCFB6801221A71FB681846FDF704FE65
:102CE0000346FB757B681B7C23F04003DAB27B68EC
:102CF0001A74FB7D18461C37BD4690BD80B584B064
:102D000000AF78607868FFF77AFF0346FB73FB7BC0
:102D1000002B0ED17B6807F1080211461846FFF719
:102D2000FDFB0346FB73FB7B002B02D17B6800227B
:102D30001A60FB7B18461037BD4680BD80B48BB04F
:102D400000AF78600B467B800023FB8400233B624E
:102D50007B687F2B02D87B68FB8441E07B68B3F5FE
:102D6000803F3DD27B88B3F5697F39D17B687B8218
:102D70001F4BFB6041F6DD437B610023BB611023E9
:102D8000FB611EE07A69BB69D31A5B08BA69134418
:102D90003B623B6A9B00FA6813441B887A8A9A421A
:102DA00013D03B6A9B00FA6813441B887A8A9A42C4
:102DB00002D93B6ABB6101E03B6A7B61FB69013B75
:102DC000FB61FB69002BDDD100E000BFFB69002B3C
:102DD00006D03B6A9B000233FA6813441B88FB84CD
:102DE000FB8C18462C37BD465DF8047B704700BF4E
:102DF000F8C4030880B489B000AF03460A46FB80DC
:102E00001346BB800023FB830023BB61FB887F2B21
:102E100002D8FB88FB833BE0BB88B3F5697F37D1E1
:102E20001F4BBB6041F6DD43FB6000233B61102379
:102E30007B611EE0FA683B69D31A5B083A69134468
:102E4000BB61BB699B00BA6813441B88FA889A422D
:102E500013D0BB699B00BA6813441B88FA889A4256
:102E600002D9BB693B6101E0BB69FB607B69013B47
:102E70007B617B69002BDDD100E000BF7B69002B0B
:102E800006D0BB699B000233BA6813441B88FB83DE
:102E9000FB8B18462437BD465DF8047B704700BFA6
:102EA0007038040880B487B000AF78607B68B3F5F1
:102EB000803F7DD27B687B827B8AB3F5805F01D2C5
:102EC0003F4B00E03F4B7B617B699A1C7A611B881A
:102ED0003B823B8A002B69D07A8A3B8A9A4265D32F
:102EE0007B699A1C7A611B88FB81FB891B0ABB8169
:102EF000FB89DBB2FB817A8A398AFB890B449A42CF
:102F00004ADABB89082B50D801A252F823F000BF3F
:102F1000352F0008472F00085D2F0008652F000897
:102F20006D2F0008752F00087D2F0008852F0008E1
:102F30008D2F00087A8A3B8AD31A5B007A69134482
:102F40001B887B8227E07A8A3B8AD31A9BB203F0E4
:102F500001039BB27A8AD31A7B821CE07B8A103BE6
:102F60007B8218E07B8A203B7B8214E07B8A303BAB
:102F70007B8210E07B8A1A3B7B820CE07B8A0833E1
:102F80007B8208E07B8A503B7B8204E07B8AA3F54E
:102F9000E3537B8200BF08E0BB89002B94D1FB89FF
:102FA0005B007A6913447B618EE700BF7B8A7B609C
:102FB0007B6818461C37BD465DF8047B704700BF30
:102FC000E8AB0408DCAD040880B586B000AF7860DB
:102FD0000B467B807B681B78FB73FB7B6B2B00F3C2
:102FE0008380302BC0F22781303B3B2B00F22381C2
:102FF00001A252F823F000BF23320008F13000088C
:1030000037320008373200083732000837320008FC
:1030100037320008373200083732000837320008EC
:1030200037320008373200083732000837320008DC
:1030300037320008373200083732000849310008BB
:103040009331000861310008373200083732000838
:1030500037320008373200083732000837320008AC
:10306000373200083732000837320008373200089C
:10307000373200083732000837320008373200088C
:1030800037320008033200083732000837320008B0
:10309000A7310008373200083732000837320008FD
:1030A000373200083732000837320008373200085C
:1030B000373200083732000837320008373200084C
:1030C000373200083732000837320008373200083C
:1030D000373200083732000837320008373200082C
:1030E0003732000811310008A52B00F0A680A2E0BD
:1030F0007B88012B08D97B6801331B78612B03D1B6
:10310000012000F0AFF89DE0092000F0ABF899E055
:103110007B6801331B78672B03D14C49002000F0FA
:10312000BBF87B6801331B78722B03D1474904201D
:1031300000F0B2F87B6801331B78622B7FD14349E2
:10314000082000F0A9F87AE0414805F05EF8414B0C
:1031500000221A70404B00221A7000F0B9F871E09A
:103160003B4805F009F87B88012B0BD97B680133BC
:103170001B78622B06D1374B01221A70364B002286
:103180001A705FE0334B00221A70334B01221A7021
:1031900058E02F4804F0F0FF2E4B01221A702E4BFE
:1031A00000221A704EE07B88012B4AD97B88013BB4
:1031B000FB82FB8A032B01D90323FB827B68591C0A
:1031C000FA8A07F10803184636F00FFDFB8A183318
:1031D0003B44002203F8102C07F10803184636F090
:1031E000C9FB38613B69002B01DC01233B613B6972
:1031F000632B01D963233B613B69DAB2174B1A7029
:1032000020E07B88012B08D97B6801331B78302BA9
:1032100003D1134B00221A7014E0114B01221A70D3
:1032200010E00B4804F0F1FF0A4B00221A700A4B21
:1032300000221A7006E000BF04E000BF02E000BFF9
:1032400000E000BF00BF1837BD4680BD040000206D
:10325000D8360020FA080020FB08002000000020DB
:10326000FC08002080B483B000AF0346FB71FB79FB
:1032700003F01F03FB71FB79054A064951F823301F
:10328000936100BF0C37BD465DF8047B704700BFFB
:103290000000024298AE040880B582B000AF7860AA
:1032A00039600021094808F035FF0421074808F07B
:1032B00031FF0821054808F02DFF7968034808F020
:1032C00049FE00BF0837BD4680BD00BF3039002031
:1032D00080B584B002AF0920FFF7C4FF01224FF48C
:1032E0000051144804F038FE0221134804F04CFE4B
:1032F000124B1B880A220092114A1249124807F009
:10330000B5FB0346FB710E4B1A88104B1A800F4B0E
:103310001B881A460E490F4836F0B4FB38603B68EC
:103320009BB21A460B490C480AF0BAF800BF08379E
:10333000BD4680BD00040242000002421A00002087
:10334000F80800201800002064370020B40800208E
:10335000DCA40308B80800207C39002080B500AF49
:103360000A4B93F88930DBB2012B0DD101224FF4C7
:103370000051074804F0F0FD064B1B6800225A621A
:10338000044808F00BFD00E000BF80BD643700205A
:1033900000040242E438002080B582B000AF7860BB
:1033A0007B681B680F4A934218D10F4808F04AFD0A
:1033B00000224FF400510D4804F0CEFD0C4B1B8849
:1033C0000C4A0D490D4807F085FD0346002B05D03A
:1033D00001224FF40051054804F0BEFD00BF08373C
:1033E000BD4680BD002C0140E438002000040242AC
:1033F0001A000020F8080020180000206437002080
:1034000080B584B000AF7860294B1B78184600F077
:10341000B1F9274B1B781846FFF724FFFFF79EFFF3
:10342000234B1B780133DAB2214B1A70204B1B78E7
:103430001F2B38D91E4B00221A701E4B1B780133EC
:10344000DAB21C4B1A701C4B1B78012B0DD1642176
:103450001A4800F08BFB0346FB81FB89002B04D04C
:10346000FB891946154800F04FFB124B1B78012BC6
:1034700019D9104B00221A70114BD3F88830202B29
:1034800007D1104B1B78DBB2012B02D100F0FCFA04
:1034900009E00D4B1B78DBB2012B04D100214FF466
:1034A000007017F03FFC00BF1037BD4680BD00BF65
:1034B0008826002089260020FC0800208C26002079
:1034C0007C390020FB080020FA08002080B584B079
:1034D00000AF78607B681B680A4A93420DD10A4BA3
:1034E0001B88FB8102F056FCB860084B1B7818461D
:1034F000FB89BA68194600F053F900BF1037BD4682
:1035000080BD00BF00200046F80800208026002073
:1035100080B582B000AF78607B68C6220021184673
:1035200036F01EFB7B680022C3F8C8207B680022AF
:1035300083F8CC207B68002283F8CD207B680022B2
:10354000A3F8CE207B68002283F8D0207B6800227D
:1035500083F8D1207B68002283F8D2207B68002288
:1035600083F8D3207B680022A3F8D4207B68002254
:1035700083F8E0207B680022C3F8E4207B68002207
:1035800083F8E82000BF0837BD4680BD80B485B011
:1035900000AF78600B467B807B6893F8CC30FB7380
:1035A0007B6893F8CD307B73294B1B78BB73BB7B57
:1035B000002B01D10123BB73BB7B632B01D9632398
:1035C000BB737A7BBB7B9A4205D27B7B0133DAB239
:1035D0007B6883F8CD207B68D3F8C830F97B7A68A4
:1035E00032F811209A1A7B68C3F8C8207B68D3F898
:1035F000C8207B881A447B68C3F8C820FA7B7B68A4
:10360000798823F81210FB7B0133FB73FA7BBB7BB9
:103610009A4201D30023FB737B68FA7B83F8CC20AA
:103620007B6893F8CD303B733B7B002B01D17B88CB
:1036300007E07B68D3F8C8203B7BB2FBF3F37B81C8
:103640007B8918461437BD465DF8047B704700BF80
:103650000000002080B485B000AF0346FB800B461D
:10366000BB801346FB70BA88FB88D31AFB60FB78DB
:10367000FA6842FA03F39AB2FB881344FB80FB8892
:1036800018461437BD465DF8047B704780B588B096
:1036900000AF03463960FB711A4B1B68002B2DD01D
:1036A000FB793B723B68D3F8E430FB603B6893F8EE
:1036B000E030BB76BB7E052B01D90523BB7600230A
:1036C000FB7710E0FB7FFA7F396868335B000B44BF
:1036D000D988131D5B0020333B440A4623F8182C7D
:1036E000FB7F0133FB77BB7EFA7F9A42EAD3054B1F
:1036F0001B6807F108021046984700E000BF20371A
:10370000BD4680BD8426002080B582B000AF002376
:10371000FB710BE0FB79EC2202FB03F30A4A134432
:103720001846FFF7F5FEFB790133FB71FB791F2B80
:10373000F0D9064B00221A70054B00221A6000BF18
:103740000837BD4680BD00BF00090020802600204C
:103750008426002080B483B000AF7860044A7B6880
:10376000136000BF0C37BD465DF8047B704700BF97
:103770008426002080B483B000AF0346FB71FB7940
:103780001F2B01D90023FB71044AFB79137000BF82
:103790000C37BD465DF8047B704700BF80260020D3
:1037A00080B586B000AF03463A60FB710B46BB8024
:1037B000FB79FB75FB7D1F2B00F20881FB7DEC2262
:1037C00002FB03F3854A13443B61BB881946386901
:1037D000FFF7DCFE0346FB813B69BA88A3F8D420DF
:1037E0003B6993F8D030002B0CD13B69B3F8CE3055
:1037F000F98908221846FFF72DFF03461A463B6950
:10380000A3F8CE203B69B3F8CE303233BB813B699D
:10381000B3F8CE3019337B813B6993F8D030022B5B
:1038200000F09C80022B00F3CC80002B02D0012BF7
:1038300045D0C6E0FA89BB899A423BD93B6993F8E7
:10384000D130FF2B07D03B6993F8D1300133DAB286
:103850003B6983F8D1203B6993F8D130012B40F2CA
:10386000B7803B69012283F8D0203B69002283F8AE
:10387000D1203B69002283F8D2203B69002283F8E3
:10388000E0203B693A68C3F8E4203B6993F8E030F4
:10389000042B00F29D803B6993F8E0305A1CD1B2B2
:1038A0003A6982F8E0103A6968335B001344FA8998
:1038B000DA808DE03B69002283F8D12088E0FA8924
:1038C000BB899A423DD93B6993F8D130FF2B07D091
:1038D0003B6993F8D1300133DAB23B6983F8D120E8
:1038E0003B6993F8D130032B74D93B69022283F8EA
:1038F000D0203B69002283F8D1203B69002283F865
:10390000D2203B6993F8E8300133DAB23B6983F89F
:10391000E8203B6993F8E030042B0DD83B6993F81D
:10392000E0305A1CD1B23A6982F8E0103A69683343
:103930005B001344FA89DA803B69012283F8D320C3
:1039400048E03B69002283F8D0203B69002283F8DD
:10395000D1203B69002283F8E0203BE03B6993F8EB
:10396000E030042B0DD83B6993F8E0305A1CD1B2FB
:103970003A6982F8E0103A6968335B001344FA89C7
:10398000DA803B6993F8D330002B08D03B6993F879
:10399000D330013BDAB23B6983F8D3201BE03B69AB
:1039A000002283F8D0203B69002283F8D1203B69B4
:1039B000002283F8D220FB7D39691846FFF766FEA6
:1039C00009E03B69002283F8D02004E000BF02E058
:1039D00000BF00E000BF1837BD4680BD00090020D1
:1039E00080B485B000AF78600B467B807B68FB605D
:1039F000FB685A1CFA60AA221A70FB685A1CFA600B
:103A000055221A700023FB7225E0FB7A1D4AEC2137
:103A100001FB03F31344D4331B883B81FA7AFB6820
:103A2000591CF9601749EC2000FB02F20A44E83205
:103A300012781A703B891B0A99B2FB685A1CFA600B
:103A4000CAB21A70FB685A1CFA603A89D2B21A706C
:103A5000FB7A0133FB72FB7A1F2BD6D9FB685A1C09
:103A6000FA600D221A70FB685A1CFA600A221A705A
:103A7000FA687B68D31A9BB218461437BD465DF8C6
:103A8000047B70470009002080B582B000AF64213C
:103A90000948FFF7A5FF0346FB80FB88002B06D0F3
:103AA000FB881A460449054809F0FAFC00E000BF0B
:103AB0000837BD4680BD00BF8C2600207C39002021
:103AC00080B584B000AF78607B681B680B4A934276
:103AD0000FD1786802F052FCF860FB68012B08D126
:103AE00007490420FFF7D8FB00220121054804F014
:103AF00033FA00BF1037BD4680BD00BF00540046FA
:103B0000040000200004024280B582B000AF78605B
:103B10000B467B807A88124B1B681344B3F5004F29
:103B200002D30F4B00221A600D4B1B680D4A134441
:103B30007A887968184636F058F87A88084B1B68F6
:103B40001344074A1360064B1B68B3F5804F02D33A
:103B5000054B01221A7000BF0837BD4680BD00BF6B
:103B6000ACBF0020AC3F0020A83F002080B485B04F
:103B700000AF78600B467B807B68FB60FB685A1C5B
:103B8000FA60AA221A70FB685A1CFA6055221A7051
:103B90000023FB7219E0FB7A174AEC2101FB03F3C7
:103BA0001344D4331B883B813B891B0A99B2FB68C1
:103BB0005A1CFA60CAB21A70FB685A1CFA603A8939
:103BC000D2B21A70FB7A0133FB72FB7A1F2BE2D957
:103BD000FB685A1CFA600D221A70FB685A1CFA60C6
:103BE0000A221A70FA687B68D31A9BB218461437F7
:103BF000BD465DF8047B70470009002080B400AF2B
:103C0000064BD3F8F430054A43F40003C2F8F4300D
:103C100000BFBD465DF8047B704700BF000C024644
:103C200080B500AF00F052F800BF80BD80B582B013
:103C300000AF7860002016F075FD00F061F800F02C
:103C400079F813F0D9FC00F0B1F800F079F800F041
:103C500089F800F09FF8174B1B884FF6FF729342CC
:103C600011D0144B1B88002B0BD0124B1B889B02CE
:103C700023F4FF5323F01F0303F1FF6303F5F8233D
:103C800002E00D4B00E00C4B18460EF09DFC034685
:103C9000002B01D000F0B0FE13F0D0FD0121022076
:103CA0000DF0AEFF002016F048FD0023184608373F
:103CB000BD4680BDA007F90B00C00F0880B500AF5E
:103CC0004FF0FF3016F08AFE00BF80BD80B582B095
:103CD00000AF00237B603B1D1946002012F0B0FCB2
:103CE0000346002B03D00C2005F086FE04E07B6821
:103CF0009B7B184605F080FE00BF0837BD4680BD9F
:103D000080B500AFFFF77AFF17F090F8074804F08E
:103D1000E3FC00F037FD064B93E8030010F094FE3F
:103D200011F096FC11F072FF00BF80BD4000003022
:103D30001C00002080B500AF13F0BCF800BF80BDB0
:103D400080B500AF10200DF01FFC0DF0D3FB0DF07F
:103D500015FB034A0021012016F0C2FF00BF80BD01
:103D60006D14010880B500AF094A00214FF480703E
:103D700016F0B6FF012101200DF042FF00210220C4
:103D80000DF03EFF002100200DF03AFF00BF80BD86
:103D90007D1F010880B500AF034A0021402016F0C6
:103DA0009FFF00BF80BD00BFF99E010880B500AF36
:103DB000074810F0A3FE0346002B01D000F01CFEC4
:103DC000044A0021202016F08BFF00BF80BD00BFF9
:103DD000340000201152010880B400AF00BFBD467E
:103DE0005DF8047B704780B400AF00BFBD465DF84E
:103DF000047B704780B400AF00BFBD465DF8047B14
:103E0000704780B500AF0021402016F08BFF00BF47
:103E100080BD80B500AF0021012016F083FF00BFF8
:103E200080BD000080B483B000AF78607B68074A33
:103E30001A607B68064A5A607B68064A9A6000BF2F
:103E40000C37BD465DF8047B704700BF693E000833
:103E5000873E0008A33E000880B500AF0021202067
:103E600016F060FF00BF80BD80B582B000AF786003
:103E700039603B689B001946786811F0F5FA00BF7D
:103E80000837BD4680BD80B582B000AF78607B68E2
:103E90009B00184611F01CFA034618460837BD4629
:103EA00080BD80B582B000AF7860786811F0A0FA6C
:103EB00000BF0837BD4680BD80B500AF00214FF47C
:103EC000807016F02FFF00BF80BD80B400AF00BF30
:103ED000BD465DF8047B704780B400AF00BFBD46AF
:103EE0005DF8047B704780B483B000AF78600B4608
:103EF0007B8000BF0C37BD465DF8047B7047000037
:103F000080B483B000AF7860084B5B6823F48072A4
:103F10007B68DB4303F48073044913434B6000BFA9
:103F20000C37BD465DF8047B704700BF00080246B1
:103F300080B400AF054B1B68044A43F001031360D3
:103F400000BFBD465DF8047B704700BF000403401E
:103F500080B483B000AF7860064B1B6823F0040286
:103F600004497B6813430B6000BF0C37BD465DF806
:103F7000047B704700040340B0B483B000AF7860A6
:103F8000074A7B6814461D460FCD0FC42B6823607B
:103F9000044B01221A7000BF0C37BD46B0BC7047FD
:103FA000383B0020343B002080B584B000AF7860FF
:103FB00039604A4804F029F9494807F0F1F901222B
:103FC0004FF40051474803F0C7FF454B1B681A6880
:103FD000434B1B6822F001021A60414B0722DA6052
:103FE0003F4B4FF00052DA613D4B00225A633C4B8D
:103FF0000022DA633A4806F0C7F80346002B0BD0DC
:1040000039490420FFF748F93EE0354B1B6830334F
:104010001B78DBB2FB73FB7B314B1B685B6903F0E6
:104020000103012BF1D02E4B1B681A682C4B1B6827
:1040300042F001021A602D4B1B78002B0AD101229D
:104040002B492C48FEF7A0FA0346002B02D1274B40
:1040500001221A70254B1B78012B15D132222649DB
:104060002648FEF7DBFA0346002B0AD107F10803C6
:104070003A6879682148FEF759FC2048FEF73EFE71
:1040800002E01A4B00221A70154B1B681A68144B79
:104090001B6822F001021A6000F058FA104B1B68EE
:1040A0009A690F4B1B6842F040029A6100224FF45C
:1040B00000510C4803F050FF114B1B78DBB2002B72
:1040C00004D1104B1B78DBB2002B02D0034804F064
:1040D00053F800BF1037BD4680BD00BFD836002062
:1040E000643700200004024244000020B0BF0020DA
:1040F000E8A403084C3B0020ECA40308803D00200A
:10410000FB080020FA08002080B500AF01F090FD08
:10411000FFF786FD00F068F800F0D4F800F080FBAF
:1041200000F01AF900F08EF900F0A0F900F04CF957
:1041300000F0B4FA00F00AFA00F0E0F800F052F9EA
:1041400000F06EFA012201211F4803F005FFFFF77E
:10415000DBFA1E48FFF7FEFA1D490020FFF79CF826
:10416000352002F05EFA1B4802F074F8322001F0AC
:104170001DFE194B4FF40032DA60174B4FF400323A
:104180001A61352002F08CFA352002F03CFA012247
:104190004FF400510C4803F0DFFE0020FFF746FD0E
:1041A000FFF78CFD0D4B1B78DBB2002BF8D00B4BCF
:1041B00000221A700A4B1B6819460A48FFF7F4FEE2
:1041C000074B00221A60EBE700040242793F000827
:1041D00044000020A836002000200246A83F00200E
:1041E000ACBF0020AC3F002080B598B000AF07F115
:1041F000200340220021184635F0B2FC3B46202225
:104200000021184635F0ACFC022004F001FB4FF40D
:10421000803004F09FFA0346002B01D000F0ECFB45
:1042200004F04AFA264BD3F8F03023F01803244A5E
:1042300043F00803C2F8F03007233B624FF48033A9
:104240007B620023BB628123FB624FF480733B637C
:1042500010237B6300233B6407F12003184604F01E
:104260006DFB0346002B01D000F0C6FB3F233B60F3
:1042700002237B600023BB600023FB6040233B6183
:1042800000237B610023BB610023FB613B460021CF
:10429000184604F063FF0346002B01D000F0ACFB8E
:1042A000022002F00BFA0E2001F0E2FC0346002B84
:1042B00001D000F0A1FB00BF6037BD4680BD00BF4C
:1042C000000C024680B592B000AF3B464822002168
:1042D000184635F045FC4FF400433B604FF4802313
:1042E0007B643B46184605F07BF90346002B01D062
:1042F00000F082FB00BF4837BD4680BD80B500AFEF
:10430000134B144A1A60124B00221A61104B2022E0
:104310005A610F4B0022DA610D4B00229A600C4B60
:1043200000229A610A4B00221A62094B0022DA60CD
:10433000074B00225A60064B31225A62044801F0B2
:1043400045FE0346002B01D000F056FB00BF80BDA8
:10435000A83600200054004680B582B000AF194B4B
:10436000D3F88830174A43F00103C2F88830154B60
:10437000D3F8883003F001037B607B6800220621BC
:104380001D2002F023F91D2002F03DF90022052135
:104390001E2002F01BF91E2002F035F90022002138
:1043A000202002F013F9202002F02DF90022002134
:1043B000212002F00BF9212002F025F900BF083777
:1043C000BD4680BD000C024680B500AF4FF4807042
:1043D000FFF796FD0020FFF7BBFDFFF7A9FD00BF2B
:1043E00080BD000080B500AF144B154A1A60134B16
:1043F00000225A60114B00229A60104B4FF6FF7258
:104400005A610E4B41F63F721A620C4B00225A62FF
:104410000A4B00229A62094B0022DA62074B002203
:104420001A63064B00225A63044803F0C7FD034693
:10443000002B01D000F0E0FA00BF80BDD83600208C
:104440000044004680B500AF064B074A1A60054895
:1044500004F02AFA0346002B01D000F0CDFA00BF89
:1044600080BD00BF283700200060024080B594B0B6
:1044700000AF07F1340300221A605A609A60DA60D4
:104480001A615A619A613B1D30220021184635F0AD
:1044900067FB2C4B2C4A1A602A4B1F229A60294B2F
:1044A00000221A61274B00225A61264B00229A6192
:1044B000244B4FF08042DA61224B00221A62214BDA
:1044C0004FF480725A621F4805F0D2FA0346002B5F
:1044D00001D000F091FA00237B6300233B640023AA
:1044E0007B640023BB6407F134031946154805F0CB
:1044F0001DFE0346002B01D000F07EFA114805F0A6
:1045000099FD0346002B01D000F076FA00233B62B0
:104510000023BB600023BB614FF07C53FB614FF471
:1045200080733B633B1D01221946064805F022FBC0
:104530000346002B01D000F05FFA00BF5037BD46A4
:1045400080BD00BF343700200078004680B584B0BD
:1045500000AF3B1D00221A605A609A602E4B2F4A12
:104560001A602D4B4FF480025A602B4B00229A6048
:10457000294B0F22DA60284B00221A61264B0022B9
:104580005A61254B4FF080629A61234B4FF00052E5
:10459000DA61214B00221A621F4B00225A621E4B25
:1045A00000229A621C4B0722DA621B4B00225A63DC
:1045B000194B00229A63184B0022DA63164B002233
:1045C0009A64154B0022DA64134B00221A65124BD1
:1045D00000225A65104B00229A650F4B0022DA65C3
:1045E0000D4B00221A660C4805F0CEFD0346002B49
:1045F00001D000F001FA00237B603B1D19460648FC
:1046000007F08BFB0346002B01D000F0F5F900BF4B
:104610001037BD4680BD00BF643700200020004633
:1046200080B584B000AF3B1D00221A605A609A60CA
:10463000184B194A1A60174B1F225A60154B00225B
:104640009A60144B0C22DA60124B00221A61114B53
:1046500000225A610F4B00229A6108210D4807F091
:10466000CDFE0346002B01D000F0C6F900237B608D
:104670000023BB600023FB603B1D1946054808F082
:10468000D5FC0346002B01D000F0B6F900BF10376F
:10469000BD4680BDE4380020002C014080B58AB0C2
:1046A00000AF07F11C0300221A605A609A603B4673
:1046B00000221A605A609A60DA601A615A619A613F
:1046C0002E4B2F4A1A602D4B00225A602B4B002292
:1046D0009A602A4B4FF6FF72DA60284B00221A616B
:1046E000264B00229A61254807F0DCFB0346002B8D
:1046F00001D000F081F90023FB6100237B6207F108
:104700001C0319461D4808F091FC0346002B01D0FC
:1047100000F072F960233B6043F2C8237B60002302
:10472000BB6000233B613B4600221946134808F05A
:1047300005F80346002B01D000F05EF900237B60F2
:104740003B46042219460D4807F0F8FF0346002BAC
:1047500001D000F051F93B4608221946074807F0FE
:10476000EDFF0346002B01D000F046F9034800F0AE
:1047700003FC00BF2837BD4680BD00BF3039002094
:104780000004004080B500AF234B244A1A60224B3E
:104790004FF4E1325A60204B00229A601E4B0022F7
:1047A000DA601D4B00221A611B4B0C225A611A4B16
:1047B00000229A61184B4FF40042DA61164B002236
:1047C0001A62154B00225A62134B00229A62124859
:1047D00008F0DAFC0346002B01D000F00DF90021AF
:1047E0000D480BF028F90346002B01D000F004F926
:1047F000002109480BF05DF90346002B01D000F0C1
:10480000FBF805480BF0DCF80346002B01D000F064
:10481000F3F800BF80BD00BF7C39002000380140A4
:1048200080B588B000AF07F10C0300221A605A600F
:104830009A60DA601A616C4BD3F88C306A4A43F0A4
:104840000103C2F88C30684BD3F88C3003F00103BD
:10485000BB60BB68644BD3F88C30634A43F00203FF
:10486000C2F88C30604BD3F88C3003F002037B60CD
:104870007B685D4BD3F88C305B4A43F00403C2F88D
:104880008C30594BD3F88C3003F004033B603B6809
:10489000002242F2A701554803F05EFB01224FF4CB
:1048A0000061524803F058FB002240F6FA015048DC
:1048B00003F052FB42F20103FB6001233B61002342
:1048C0007B610023BB6107F10C031946474803F0E5
:1048D00031F940F60403FB6001233B6101237B6156
:1048E0000023BB6107F10C031946404803F022F98D
:1048F000DA23FB6001233B6100237B610023BB6162
:1049000007F10C0319463A4803F014F94FF4026317
:10491000FB6001233B6102237B610023BB6107F144
:104920000C031946324803F005F94FF40053FB60BD
:1049300000233B6100237B6107F10C0319462D48DE
:1049400003F0F8F84023FB6003233B6102237B6103
:1049500007F10C031946254803F0ECF8A223FB608D
:1049600001233B6102237B610023BB6107F10C0340
:1049700019461E4803F0DEF84FF40043FB600023A5
:104980003B6102237B6107F10C031946184803F0D1
:10499000D1F81023FB6003233B6100237B6107F107
:1049A0000C031946114803F0C5F84FF48053FB601F
:1049B00003233B6100237B6107F10C0319460C487C
:1049C00003F0B8F84FF40043FB6000233B61002381
:1049D0007B6107F10C031946044803F0ABF800BFF4
:1049E0002037BD4680BD00BF000C024600040242D5
:1049F000000002420008024280B400AF72B600BF5D
:104A000000BFFDE780B582B000AF114BD3F8943002
:104A10000F4A43F00403C2F894300D4BD3F894309E
:104A200003F004037B607B6800220121092001F070
:104A3000CDFD092001F0E7FD00220521422001F013
:104A4000C5FD422001F0DFFD00BF0837BD4680BD37
:104A5000000C024680B58AB000AF786007F11403FD
:104A600000221A605A609A60DA601A617B681B68DB
:104A70001C4A934231D11C4BD3F8A8301A4A43F454
:104A80000043C2F8A830184BD3F8A83003F4004311
:104A90003B613B69144BD3F88C30134A43F001035C
:104AA000C2F88C30104BD3F88C3003F00103FB605C
:104AB000FB6804237B610323BB610023FB6107F1D7
:104AC00014031946094803F035F800220021352067
:104AD00001F07CFD352001F096FD00BF2837BD4672
:104AE00080BD00BF00540046000C02460000024298
:104AF00080B485B000AF78607B681B680B4A934236
:104B00000ED10B4BD3F88830094A43F48053C2F8D6
:104B10008830074BD3F8883003F48053FB60FB6880
:104B200000BF1437BD465DF8047B7047003002407B
:104B3000000C024680B483B000AF78607B681B68CD
:104B4000084A934207D1084BD3F88830064A23F429
:104B50008053C2F8883000BF0C37BD465DF8047B37
:104B6000704700BF00300240000C024680B596B08E
:104B700000AF786007F1100348220021184634F096
:104B8000EFFF7B681B68164A934225D14FF4805390
:104B90003B610023BB6407F11003184604F020FDBD
:104BA0000346002B01D0FFF727FF0E4BD3F8A830A8
:104BB0000C4A43F40063C2F8A8300A4BD3F8A8307B
:104BC00003F40063FB60FB6800220021312001F048
:104BD000FDFC312001F017FD00BF5837BD4680BDF8
:104BE00000440046000C024680B485B000AF7860F7
:104BF0000A4BD3F88830094A43F40033C2F88830AE
:104C0000064BD3F8883003F40033FB60FB6800BF29
:104C10001437BD465DF8047B704700BF000C0246A8
:104C200080B596B000AF786007F1100348220021EC
:104C3000184634F095FF7B681B68174A934226D1CB
:104C40004FF480433B614FF480733B6507F11003E1
:104C5000184604F0C5FC0346002B01D0FFF7CCFE3C
:104C60000E4BD3F8A8300D4A43F40013C2F8A83015
:104C70000A4BD3F8A83003F40013FB60FB68002252
:104C80000421022001F0A2FC022001F0BCFC00BFC4
:104C90005837BD4680BD00BF00780046000C024674
:104CA00080B59CB000AF786007F15C0300221A6009
:104CB0005A609A60DA601A6107F1140348220021F1
:104CC000184634F04DFF7B681B687A4A934240F0E7
:104CD000ED804FF480637B6110237B6407F1140344
:104CE000184604F07DFC0346002B01D0FFF784FE3C
:104CF000714BD3F8A830704A43F02003C2F8A830B3
:104D00006D4BD3F8A83003F020033B613B696A4B3D
:104D1000D3F88C30684A43F00103C2F88C30664BFC
:104D2000D3F88C3003F00103FB60FB68624BD3F8CF
:104D30008C30614A43F00203C2F88C305E4BD3F8EA
:104D40008C3003F00203BB60BB680123FB650223C8
:104D50003B6600237B660023BB660623FB6607F1E8
:104D60005C031946554802F0E5FE4FF44073FB65BD
:104D700002233B6600237B660023BB660623FB669B
:104D800007F15C0319464E4802F0D4FE4D4B4E4AE3
:104D90001A604C4B04225A604A4B00229A60494BDD
:104DA0004FF48062DA60474B08221A61454B0022BB
:104DB0005A61444B01229A61424B4FF48032DA61CE
:104DC000404B00221A623F4B01225A623D4B0122A6
:104DD0009A623C4B0022DA623A4B00221A63394B4A
:104DE00000225A63374801F03BFF0346002B01D0F5
:104DF000FFF702FE7B68334AC3F88020314A7B68A4
:104E0000D36510212F4802F0C6FA0346002B01D0CB
:104E1000FFF7F2FD2D4B2E4A1A602C4B03225A60ED
:104E20002A4B00229A60294B0022DA60274B00228D
:104E30001A61264B4FF400225A61244B01229A61D9
:104E4000224B4FF48032DA61204B00221A621F4B52
:104E500001225A621D4B01229A621C4B0022DA6227
:104E60001A4B00221A63194B00225A63174801F0AB
:104E7000F7FE0346002B01D0FFF7BEFD7B68134A07
:104E8000C3F88420114A7B68D36510210F4802F0D3
:104E900082FA0346002B01D0FFF7AEFD002200216D
:104EA0003F2001F093FB3F2001F0ADFB00BF7037C6
:104EB000BD4680BD00200046000C024600000242B4
:104EC00000040242F4370020500202406C380020F7
:104ED000D001024080B584B000AF78607B681B6869
:104EE000124A93421ED1124BD3F8A430104A43F415
:104EF0000063C2F8A4300E4BD3F8A43003F400636F
:104F0000FB60FB6800220021252001F05FFB2520CB
:104F100001F079FB00220021262001F057FB26201A
:104F200001F071FB00BF1037BD4680BD002C014071
:104F3000000C024680B485B000AF78607B681B68C7
:104F40000B4A93420ED10B4BD3F89C30094A43F0E5
:104F50000203C2F89C30074BD3F89C3003F00203E5
:104F6000FB60FB6800BF1437BD465DF8047B7047EB
:104F700000040040000C024680B58AB000AF7860A3
:104F800007F1140300221A605A609A60DA601A610D
:104F90007B681B68234A93423FD1234BD3F88C3064
:104FA000214A43F00103C2F88C301F4BD3F88C30F8
:104FB00003F001033B613B691B4BD3F88C301A4A69
:104FC00043F00203C2F88C30174BD3F88C3003F057
:104FD0000203FB60FB684FF4C0637B610223BB618B
:104FE0000023FB6100233B6202237B6207F1140371
:104FF00019460E4802F09EFD4FF480437B61022368
:10500000BB610023FB6100233B6202237B6207F14B
:1050100014031946064802F08DFD00BF2837BD462F
:1050200080BD00BF00040040000C024600000242A8
:105030000004024280B59CB000AF786007F15C03C9
:1050400000221A605A609A60DA601A6107F114034C
:1050500048220021184634F083FD7B681B68794A9A
:10506000934240F0EA8001237B610223BB6107F198
:105070001403184604F0B4FA0346002B01D0FFF7DE
:10508000BBFC714BD3F8A4306F4A43F48043C2F8A1
:10509000A4306D4BD3F8A43003F480433B613B69EB
:1050A000694BD3F88C30684A43F00203C2F88C3065
:1050B000654BD3F88C3003F00203FB60FB68624B56
:1050C000D3F88C30604A43F00103C2F88C305E4B59
:1050D000D3F88C3003F00103BB60BB684FF48053FE
:1050E000FB6502233B6600237B660023BB66072328
:1050F000FB6607F15C031946544802F01BFD4FF4B0
:105100008073FB6502233B6600237B660023BB663E
:105110000723FB6607F15C0319464D4802F00AFDC0
:105120004C4B4D4A1A604B4B0B225A60494B0022A4
:105130009A60484B0022DA60464B00221A61454BC8
:105140004FF400225A61434B00229A61414B0022E6
:10515000DA61404B00221A623E4B01225A623D4BFB
:1051600001229A623B4B0022DA623A4B00221A6318
:10517000384B00225A63374801F072FD0346002B7A
:1051800001D0FFF739FC7B68324AC3F88020314AEE
:105190007B68D36510212F4802F0FDF80346002BF1
:1051A00001D0FFF729FC2D4B2D4A1A602B4B0C2206
:1051B0005A602A4B00229A60284B4FF48062DA60D2
:1051C000264B08221A61254B00225A61234B0022EC
:1051D0009A61224B0022DA61204B00221A621F4B97
:1051E00001225A621D4B01229A621C4B0022DA6294
:1051F0001A4B00221A63194B00225A63174801F018
:105200002FFD0346002B01D0FFF7F6FB7B68134A06
:10521000DA67124A7B68D3651021104802F0BBF8A8
:105220000346002B01D0FFF7E7FB002207212E20C9
:1052300001F0CCF92E2001F0E6F900BF7037BD4631
:1052400080BD00BF00380140000C0246000402424D
:1052500000000242443A0020D0000240BC3A002044
:105260005000024080B582B000AF78607B681B6858
:10527000134A93421FD1134BD3F8A430114A23F49D
:105280008043C2F8A4304FF480510F4802F0A8FDCB
:105290004FF480710D4802F0A3FD7B68D3F8803095
:1052A000184601F071FD7B68DB6F184601F06CFD5C
:1052B0002E2001F0B6F900BF0837BD4680BD00BF03
:1052C00000380140000C0246000402420000024285
:1052D00080B483B000AF0346FB7197F90730002B11
:1052E0000BDBFB7903F01F02074997F907305B09D5
:1052F000012000FA02F241F8232000BF0C37BD461E
:105300005DF8047B704700BF00E100E080B483B02B
:1053100000AF0346FB7197F90730002B12DBFB79D6
:1053200003F01F020A4997F907305B09012000FAD0
:1053300002F2203341F82320BFF34F8F00BFBFF3A9
:105340006F8F00BF00BF0C37BD465DF8047B704710
:1053500000E100E080B400AF064BD3F80832054A04
:1053600023F48033C2F8083200BFBD465DF8047BE9
:10537000704700BF000C024680B483B000AF786075
:105380007B686FF001021A6100BF0C37BD465DF803
:10539000047B704780B483B000AF78607B681B6982
:1053A00003F00103012B01D1012300E00023184683
:1053B0000C37BD465DF8047B704780B400AF00BF7A
:1053C000FDE780B400AF00BFFDE780B400AF00BFD1
:1053D000FDE780B400AF00BFFDE780B400AF00BFC1
:1053E000FDE780B400AF00BFBD465DF8047B7047A9
:1053F00080B400AF00BFBD465DF8047B704780B449
:1054000000AF00BFBD465DF8047B704780B500AFBC
:1054100000F0ACFC00BF80BD80B500AF034804F0D5
:10542000EBFC024804F030FE00BF80BD34370020A2
:1054300080B500AF0C4B5B6D03F01003102B05D152
:10544000094B10229A6511F0C5FF0AE0064B5B6D0F
:1054500003F04003402B04D1034B40229A6511F026
:1054600035FF00BF80BD00BF000C024680B500AF15
:10547000024801F023FE00BF80BD00BFBC3A0020FF
:1054800080B500AF024801F019FE00BF80BD00BF2B
:10549000443A002080B500AF024801F00FFE00BF83
:1054A00080BD00BF6C38002080B500AF024801F01D
:1054B00005FE00BF80BD00BFF437002080B500AFFF
:1054C000024806F0EBFF00BF80BD00BFE4380020BB
:1054D00080B500AF024806F0E1FF00BF80BD00BF0D
:1054E000E438002080B500AF024808F0A1F800BF02
:1054F00080BD00BF7C39002080B500AF024802F0BB
:10550000E0FE00BF80BD00BFD836002080B500AFF0
:105510000648FFF73FFF0346012B04D10348FFF77E
:105520002BFF11F085FF00BF80BD00BF004401408C
:1055300080B500AF024800F0D7FE00BF80BD00BFBD
:10554000A836002080B500AF024806F01FF800BF63
:1055500080BD00BF6437002080B500AF064B1B68DC
:10556000002B02D0044B1B689847FFF7F3FEBFF3F4
:105570006F8F00BF00BF80BD6002012080B500AF0B
:105580003D20FFF7C3FE0C4B1B68002B02D00A4BDB
:105590001B689847094B1B78DBB2002B07D0002211
:1055A00005213D2001F012F8044B00221A703D2025
:1055B000FFF78EFE00BF80BD640201208002012043
:1055C00080B586B000AF7860144A154BD31A7B6162
:1055D0007B693B61134B1B68002B02D1114B124AB4
:1055E0001A60104B1A687B6813443A699A4207D2D2
:1055F00034F0CCFA03460C221A604FF0FF3309E076
:10560000084B1B68FB60074B1A687B681344054A0C
:105610001360FB6818461837BD4680BD00000220A5
:1056200000100000B4BF0020184B012080B400AF70
:10563000074BD3F88830064A43F47003C2F8883029
:10564000034B044A9A6000BFBD465DF8047B704777
:1056500000ED00E00000000880B489B000AF4F4BBF
:10566000DB6903F00C03082B02D00C2B0BD07DE080
:105670004A4B1B681B0D03F00103494A22FA03F34E
:10568000484A136076E0454B9B6AFB61434B5B6B7A
:105690007B61FB691B0A03F0070301333B617B69F4
:1056A000C3F308030133FB607B691B0E03F07F0328
:1056B0000133BB60FB6903F01003002B0BD0374BA9
:1056C0009B6BDB08C3F30C0307EE903AF8EE677AA6
:1056D000C7ED067A02E04FF00003BB61FB6903F0FF
:1056E00003037B607B68022B03D07B68032B03D012
:1056F0000CE02D4BFB610CE0284B1B681B0D03F0ED
:105700000103274A22FA03F3FB6102E00023FB6155
:1057100000BFFB6907EE903AF8EE676A3B6907EE57
:10572000903AF8EE677A86EEA77AFB6807EE903A31
:10573000F8EE676A97ED066ADFED1C5AC6EE257A29
:1057400076EEA77A67EE277AC7ED007ABB6807EE98
:10575000903AB8EE677AD7ED006AC6EE877AFCEE2B
:10576000E77A17EE902A0F4B1A6003E00D4B0E4AB2
:105770001A6000BF094B1B6A03F007030C4AD35C95
:10578000FB61084B1A68FB6922FA03F3054A1360B0
:1057900000BF2437BD465DF8047B7047000C02460D
:1057A0000048E801580000200024F40000000046F2
:1057B00018AF040880B586B002AF0346FB7107F14D
:1057C0000F02F91D642300930123044805F04EF9EC
:1057D000FB7B18461037BD4680BD00BF64370020F4
:1057E00080B582B000AF0346FB71FB791846FFF726
:1057F000E1FF00BF0837BD4680BD80B500AFFF2088
:10580000FFF7D8FF0346184680BD80B582B000AFD1
:1058100041F28833FB800EE0FFF7EFFF03467B7118
:105820007B79FF2B01D1012309E0012000F0BEFAB2
:10583000FB88013BFB80FB88002BEDD10023184641
:105840000837BD4680BD000080B500AF01224FF48F
:105850000061034802F080FBFFF7CFFF00BF80BD6F
:105860000004024280B500AF00224FF400610748F7
:1058700002F072FBFFF7C9FF0346002B01D00123A2
:1058800002E0FFF7E1FF0023184680BD000402425A
:1058900080B584B000AF03463960FB7197F90730DB
:1058A000002B0EDAFB7903F07F03FB710021372018
:1058B000FFF7EEFF0346BB73BB7B012B01D9BB7B1C
:1058C0004CE0FFF7C1FFFFF7CDFF0346002B01D1EE
:1058D000FF2343E0FB7943F04003DBB21846FFF7B8
:1058E0007FFF3B681B0EDBB21846FFF779FF3B6872
:1058F0001B0CDBB21846FFF773FF3B681B0ADBB2D9
:105900001846FFF76DFF3B68DBB21846FFF768FFEC
:105910000123FB73FB79002B01D19523FB73FB79EA
:10592000082B01D18723FB73FB7B1846FFF758FF39
:10593000FB790C2B01D1FFF760FF0A23FB73FFF704
:105940005CFF0346BB7397F90E30002B05DAFB7B37
:10595000013BFB73FB7B002BF1D1BB7B184610375F
:10596000BD4680BD90B587B000AF0346FB71FB79A3
:10597000002B01D00123A9E0142000F017FA012226
:105980004FF40061534802F0E7FA0A23FB7504E084
:10599000FFF733FFFB7D013BFB75FB7D002BF7D150
:1059A00000237B7500210020FFF772FF0346012BC7
:1059B00040F084804FF47A737B824FF4D5710820D5
:1059C000FFF766FF0346012B4DD10023FB750CE06A
:1059D000FC7DFFF712FF03461A4604F118033B440F
:1059E00003F80C2CFB7D0133FB75FB7D032BEFD9FA
:1059F000BB7B012B62D1FB7BAA2B5FD100BF7B8AD3
:105A00005A1E7A82002B07D04FF08041A920FFF761
:105A10003FFF0346002BF2D17B8A002B4ED00021A2
:105A20003A20FFF735FF0346002B47D10023FB75D3
:105A30000CE0FC7DFFF7E1FE03461A4604F1180373
:105A40003B4403F80C2CFB7D0133FB75FB7D032BE2
:105A5000EFD93B7B03F04003002B01D00C2300E087
:105A600004237B752AE00021A920FFF711FF0346DC
:105A7000012B04D802237B75A923BB7503E0012306
:105A80007B750123BB7500BF7B8A5A1E7A82002B6F
:105A900007D0BB7D00211846FFF7FAFE0346002B16
:105AA000F2D17B8A002B07D04FF400711020FFF752
:105AB000EFFE0346002B01D000237B75FFF7C4FEE9
:105AC0007B7D002B0CBF01230023DBB218461C3763
:105AD000BD4690BD0004024280B586B000AFB960FB
